:020000040800F2
:1000000000000220794B0008E11A0008E31A0008FA
:10001000E51A0008E71A0008E91A000800000000C5
:10002000000000000000000000000000EB1A0008C3
:10003000ED1A000800000000EF1A0008F11A00088D
:10004000C94B0008C94B0008C94B0008C94B000840
:10005000C94B0008C94B0008C94B0008C94B000830
:10006000C94B0008C94B0008C94B0008F91A000821
:10007000091B0008191B0008C94B0008C94B0008E0
:10008000C94B0008C94B0008C94B0008C94B000800
:10009000C94B0008C94B0008C94B0008C94B0008F0
:1000A000C94B0008C94B0008C94B0008C94B0008E0
:1000B000291B0008C94B0008391B0008C94B000860
:1000C000C94B0008C94B0008C94B0008C94B0008C0
:1000D000C94B0008C94B0008C94B0008C94B0008B0
:1000E000C94B0008C94B0008C94B0008C94B0008A0
:1000F000C94B0008C94B0008C94B0008491B000840
:10010000C94B0008C94B0008591B0008C94B00081F
:10011000691B0008C94B0008791B0008891B0008EF
:10012000991B0008C94B0008C94B0008C94B0008BF
:10013000C94B0008C94B0008C94B0008C94B00084F
:10014000C94B0008C94B0008C94B0008C94B00083F
:10015000C94B0008C94B0008C94B0008C94B00082F
:10016000C94B0008C94B0008C94B0008C94B00081F
:10017000C94B0008C94B0008C94B0008000000002B
:08018000C94B0008C94B00083F
:1001900001F0FF01102A2BDB10F0070F08D010F838
:1001A000013B013A8B422DD010F0070F42B3F6D13C
:1001B000F0B441EA012141EA014122F007047FF055
:1001C00000070023F0E80256083C85EA010586EAAC
:1001D000010685FA47F5A3FA87F586FA47F6A5FAE8
:1001E00087F68EB9EED1F0BC01F0FF0102F00702F4
:1001F00032B110F8013B013A83EA010313B1F8D19F
:100200000020704701387047002D06BF354603387F
:10021000073815F0010F07D1013015F4807F02BFB8
:10022000013015F4C03F0130F0BC0138704700BF09
:1002300053B94AB9002908BF00281CBF4FF0FF314D
:100240004FF0FF3000F00CB8ADF1080C6DE904CEB2
:1002500005F070F9DDF804E0DDE9022304B0704731
:10026000704700BF10B5054C237833B9044B13B168
:100270000448AFF300800123237010BD5C00002010
:1002800000000000F057000808B5034B1BB10349FC
:100290000348AFF3008008BD0000000060000020AC
:1002A000F057000810B5074C074A0E21204603F00E
:1002B0009EFC204603F08CFB044B48221A70492216
:1002C0005A7010BD14020020950B00087C0000201D
:1002D00008B5FDEEC07AB8EEE77A30EE470A9FED3A
:1002E000097A20EE070ABDEEC07A17EE103A002B0D
:1002F00006DB17EE902A0449044804F067FC08BDA9
:100300005B42F6E70000C842085800087C00002065
:1003100070B50446BF4B00225A610D46002950D0EB
:10032000012D5FD0022D6ED0A4F12D00452800F2E2
:10033000A380DFE810F07900A100A100A200CB00AB
:10034000F4001D01460171019A01C301EC0115027F
:10035000A100A100A100A100A100A100A1003E02F6
:1003600067029002B902E2020B03370360038903BC
:10037000A100A100A100A100A100A100A100A10075
:10038000A1000404A100DB03A100A100A100A100C1
:10039000A100A100A100A100A100A100A100A10055
:1003A000A100A100A100A100A100A100A100A10045
:1003B000A100A100A100A100A100A100A100A10035
:1003C000B2031E4601220421184602F063F90022FE
:1003D0000821304602F05EF900228021304602F00A
:1003E00059F99DE78B4E00220421304602F052F964
:1003F00001220821304602F04DF9002280213046CA
:1004000002F048F98EE7834D00220421284602F0CD
:1004100041F900220821284602F03CF901228021FE
:10042000284602F037F97FE77A4C00221021204657
:1004300002F030F900224021204602F02BF9002280
:100440004FF40071204602F025F900224FF40061BC
:10045000204602F01FF900224FF48051204602F09E
:1004600019F900222021204602F014F901224FF44C
:100470008071204602F00EF970BD664C01221021F9
:10048000204602F007F901224021204602F002F93D
:1004900001224FF40071204602F0FCF801224FF4D3
:1004A0000061204602F0F6F801224FF48051204608
:1004B00002F0F0F801222021204602F0EBF80022A1
:1004C0004FF48071204602F0E5F8D5E7514C002248
:1004D0001021204602F0DEF801224021204602F0E1
:1004E000D9F801224FF40071204602F0D3F800221F
:1004F0004FF40061204602F0CDF800224FF4805105
:10050000204602F0C7F800222021204602F0C2F85F
:1005100000224FF48071204602F0BCF8ACE73D4C5D
:1005200001221021204602F0B5F801224021204688
:1005300002F0B0F800224FF40071204602F0AAF851
:1005400001224FF40061204602F0A4F801224FF48A
:100550008051204602F09EF800222021204602F021
:1005600099F801224FF48071204602F093F883E756
:10057000284C01221021204602F08CF80122402153
:10058000204602F087F801224FF40071204602F065
:1005900081F801224FF40061204602F07BF800222E
:1005A0004FF48051204602F075F8002220212046A9
:1005B00002F070F801224FF48071204602F06AF8D0
:1005C0005AE7144C00221021204602F063F8012261
:1005D0004021204602F05EF801224FF400712046CF
:1005E00002F058F800224FF40061204602F052F861
:1005F00000224FF48051204602F04CF801222021C5
:10060000204602F047F801224FF48071204602F0A4
:1006100041F831E700180240E14C01221021204648
:1006200002F038F800224021204602F033F801227F
:100630004FF40071204602F02DF801224FF40061C2
:10064000204602F027F800224FF48051204602F0A5
:1006500021F801222021204602F01CF801224FF44B
:100660008071204602F016F806E7CD4C01221021D9
:10067000204602F00FF800224021204602F00AF83E
:1006800001224FF40071204602F004F801224FF4D9
:100690000061204601F0FEFF01224FF48051204608
:1006A00001F0F8FF01222021204601F0F3FF012292
:1006B0004FF48071204601F0EDFFDDE6B84C0122D9
:1006C0001021204601F0E6FF01224021204601F0E2
:1006D000E1FF01224FF40071204601F0DBFF002210
:1006E0004FF40061204601F0D5FF00224FF4805105
:1006F000204601F0CFFF00222021204601F0CAFF52
:1007000000224FF48071204601F0C4FFB4E6A44CEF
:1007100001221021204601F0BDFF01224021204688
:1007200001F0B8FF01224FF40071204601F0B2FF42
:1007300001224FF40061204601F0ACFF01224FF48A
:100740008051204601F0A6FF01222021204601F021
:10075000A1FF01224FF48071204601F09BFF8BE640
:100760008F4C01221021204601F094FF01224021EC
:10077000204601F08FFF01224FF40071204601F066
:1007800089FF00224FF40061204601F083FF002220
:100790004FF48051204601F07DFF012220212046A8
:1007A00001F078FF01224FF48071204601F072FFC2
:1007B00062E67B4C01221021204601F06BFF0122F2
:1007C0004021204601F066FF01224FF400712046CF
:1007D00001F060FF00224FF40061204601F05AFF53
:1007E00001224FF48051204601F054FF01222021C4
:1007F000204601F04FFF01224FF48071204601F0A6
:1008000049FF39E6664C00221021204601F042FFE4
:1008100000224021204601F03DFF01224FF40071EB
:10082000204601F037FF01224FF40061204601F01D
:1008300031FF01224FF48051204601F02BFF0122AD
:100840002021204601F026FF01224FF4807120462E
:1008500001F020FF10E6524C01221021204601F049
:1008600019FF00224021204601F014FF00224FF41E
:100870000071204601F00EFF01224FF40061204676
:1008800001F008FF01224FF48051204601F002FFE1
:1008900000222021204601F0FDFE01224FF480714C
:1008A000204601F0F7FEE7E53D4C002210212046EE
:1008B00001F0F0FE01224021204601F0EBFE012272
:1008C0004FF40071204601F0E5FE01224FF4006173
:1008D000204601F0DFFE01224FF48051204601F056
:1008E000D9FE00222021204601F0D4FE01224FF43F
:1008F0008071204601F0CEFEBEE5294C0122102178
:10090000204601F0C7FE00224021204601F0C2FE31
:1009100000224FF40071204601F0BCFE01224FF48A
:100920000061204601F0B6FE01224FF480512046BE
:1009300001F0B0FE01222021204601F0ABFE012291
:100940004FF48071204601F0A5FE95E5144C01227C
:100950001021204601F09EFE00224021204601F099
:1009600099FE00224FF40071204601F093FE002210
:100970004FF40061204601F08DFE01224FF48051BA
:10098000204601F087FE01222021204601F082FE50
:1009900001224FF48071204601F07CFE6CE500BF1F
:1009A000001802407A4C01221021204601F072FE0C
:1009B00000224021204601F06DFE01224FF400711B
:1009C000204601F067FE01224FF40061204601F04D
:1009D00061FE01224FF48051204601F05BFE0122AE
:1009E0002021204601F056FE00224FF4807120465F
:1009F00001F050FE40E5664C00221021204601F037
:100A000049FE01224021204601F044FE01224FF41C
:100A10000071204601F03EFE00224FF400612046A6
:100A200001F038FE01224FF48051204601F032FEE1
:100A300001222021204601F02DFE01224FF4807179
:100A4000204601F027FE17E5514C002210212046D8
:100A500001F020FE00224021204601F01BFE002272
:100A60004FF40071204601F015FE00224FF40061A2
:100A7000204601F00FFE01224FF48051204601F084
:100A800009FE01222021204601F004FE00224FF43D
:100A90008071204601F0FEFDEEE43D4C0022102165
:100AA000204601F0F7FD00224021204601F0F2FD32
:100AB00000224FF40071204601F0ECFD00224FF4BB
:100AC0000061204601F0E6FD01224FF480512046EE
:100AD00001F0E0FD00222021204601F0DBFD012293
:100AE0004FF48071204601F0D5FDC5E4284C00226A
:100AF0001021204601F0CEFD01224021204601F0C8
:100B0000C9FD01224FF40071204601F0C3FD01220E
:100B10004FF40061204601F0BDFD01224FF48051E9
:100B2000204601F0B7FD01222021204601F0B2FD50
:100B300000224FF48071204601F0ACFD9CE4144C7F
:100B400001221021204601F0A5FD0022402120466F
:100B500001F0A0FD01224FF40071204601F09AFD42
:100B600001224FF40061204601F094FD00224FF471
:100B70008051204601F08EFD01222021204601F007
:100B800089FD01224FF48071204601F083FD73E45A
:100B90000018024038B5144C2378144D144A1178CB
:100BA000591AE85CFFF7B4FB23780133DBB22370FA
:100BB000EB5C2E2B07D00C4B1A780D4B1B780333B4
:100BC0009A420AD038BD01224FF48061094801F0F1
:100BD00061FD074B01221A70EDE70023024A1370F2
:100BE000034A1370EEE700BF8C0000207C00002059
:100BF000780000200018024000B2704700B587B0AE
:100C00000A4640004FF47A7302930223019305AB26
:100C100000930123C118064802F01EF99DF8140044
:100C20009DF8153043EA002007B05DF804FB00BFD3
:100C3000B4070020F0B585B01A4D4FF47A760296CD
:100C400001240194184B009323467522D321284692
:100C500002F002F9029601940027009723466B22C6
:100C6000D221284602F046F8029601940723009309
:100C700023461922D221284602F03CF8029601941C
:100C8000009723461C22D221284602F033F8029610
:100C90000194009723461C22D221284602F02AF80C
:100CA00005B0F0BDB40700209C00002010B52DED6C
:100CB000028B04463B216920FFF7A0FFFFF79CFF52
:100CC00000EB8000400007EE900AF8EEE77A9FED17
:100CD0001D8A67EE887A1C4BC3ED007A3D2169209E
:100CE000FFF78CFFFFF788FF00EB8000400007EE66
:100CF000900AF8EEE77A67EE887A144BC3ED007A33
:100D00003F216920FFF77AFFFFF776FF00EB8000B5
:100D1000430000EE103AB8EEC00A20EE080A0C4B71
:100D200083ED000A2CB1012C07D0022CBDEC028B04
:100D300010BD054B93ED000AF8E7044B93ED000A54
:100D4000F4E700BF000080389800002094000020E5
:100D50009000002008B50821014803F04FFA08BDB3
:100D60009805002008B5044B984200D008BD0D221C
:100D7000024903F0E4FEF9E7004C0040A000002027
:100D80002DE9F0418CB000240794089409940A944A
:100D90000B940094474B1A6B42F010021A631A6BC3
:100DA00002F010020092009A01941A6B42F02002A5
:100DB0001A631A6B02F020020192019A02941A6BD4
:100DC00042F001021A631A6B02F001020292029AC7
:100DD00003941A6B42F002021A631A6B02F00202C9
:100DE0000392039A04941A6B42F008021A631A6B76
:100DF00002F008020492049A05941A6B42F0400231
:100E00001A631A6B02F040020592059A06941A6B57
:100E100042F004021A631B6B03F004030693069B63
:100E2000254F2246FF21384601F034FCDFF894803C
:100E300022464FF20C01404601F02CFC1F4E224688
:100E400041F6FC71304601F025FC40F2BC7307937B
:100E50000894099407A91A4801F026FBFF23079379
:100E60000125089509940A9407A9384601F01CFB4E
:100E70004FF20C0307930895099403270A9707A9D3
:100E8000404601F011FB40F28C430793089509940A
:100E90000A9407A9304601F007FB41F67033079327
:100EA000089509940A9707A9304601F0FDFA0CB09D
:100EB000BDE8F08100380240000402400018024002
:100EC00000100240000C024010B582B000240094D3
:100ED0001E4B1A6B42F400121A631A6B02F40012D2
:100EE0000092009A01941A6B42F480021A631B6B01
:100EF00003F480030193019B224621460B2001F05D
:100F000085F80B2001F092F8224621460C2001F0D2
:100F10007DF80C2001F08AF8224621460D2001F0D0
:100F200075F80D2001F082F8224621462F2001F0AD
:100F30006DF82F2001F07AF822462146382001F082
:100F400065F8382001F072F802B010BD0038024098
:100F500072B6FEE700B58FB000230A930B930C9393
:100F60000D930893099301930293039304930593BC
:100F7000069307931E484FF08042026043608360EF
:100F80006822C2600361836103F0F4F928BB4FF467
:100F900080530A930AA9164803F0A1F8F8B9144837
:100FA00003F01EFAE8B900230893099308A9104832
:100FB00003F082FAB8B960230193002302930393EC
:100FC0000593082201A90A4802F06EFF68B9084893
:100FD00000F0FAFC0FB05DF804FBFFF7B9FFFFF774
:100FE000B7FFFFF7B5FFFFF7B3FFFFF7B1FF00BF94
:100FF0009805002008B50A480A4B03604FF41653C1
:10100000436000238360C36003610C2242618361FB
:10101000C36103F081FB00B908BDFFF799FF00BF72
:10102000B0000020004C004008B50A480A4B03609D
:101030000A4B436000238360C3604FF48042026127
:1010400043618361C361036201F076FD00B908BDAD
:10105000FFF77EFFB407002000540040A086010087
:1010600000B585B0002300930193029303932548B4
:10107000254A02604FF440324260836001220261DF
:10108000027680F82030C36220498162C360042365
:10109000C36180F83020426100F07CFE38BB002341
:1010A00000930122019202936946164800F09EFEC9
:1010B000F8B901230093022301936946114800F017
:1010C00095FEC0B9022300930323019369460D489E
:1010D00000F08CFE88B90323009304230193694632
:1010E000084800F083FE50B905B05DF804FBFFF737
:1010F0002FFFFFF72DFFFFF72BFFFFF729FFFFF76C
:1011000027FF00BF68080020002001400100000FF9
:1011100000B583B00023009301930E480E4A02608D
:101120002D224260836042F20F72C260836103F03D
:1011300021F950B90023009301936946054803F053
:10114000BBF920B903B05DF804FBFFF701FFFFF71F
:10115000FFFE00BF140200200014004000B583B061
:101160000023009301930E480E4A026042F2CF0220
:101170004260836042F20F72C260836103F0FAF84A
:1011800050B90023009301936946054803F094F990
:1011900020B903B05DF804FBFFF7DAFEFFF7D8FED5
:1011A000C80200200010004008B50A480A4B03603E
:1011B0000A4B436000238360C3604FF480420261A6
:1011C00043618361C361036201F0B6FC00B908BDED
:1011D000FFF7BEFE6007002000580040A086010017
:1011E00000B587B000230293039304930593009303
:1011F00001931448144A026042F20F724260836005
:1012000042F2D002C26003618023836103F0B2F82E
:1012100090B94FF48053029302A90A4802F05FFF8D
:1012200060B90023009301936946064803F044F92E
:1012300030B907B05DF804FBFFF78AFEFFF788FEC0
:10124000FFF786FE300400200008004000B58BB098
:10125000002306930793089309930493059300933F
:101260000193029303932948294A026043608360F3
:101270004FF6FF72C26003614361836103F07AF845
:10128000002833D14FF48053069306A91F4802F07B
:1012900026FF68BB1D4803F0D9F858BB0023049310
:1012A000059304A9194803F007F928BB002200920E
:1012B00001230193029203926946144802F0A0FEB2
:1012C000E0B904226946114802F09AFEC0B908222A
:1012D00069460E4802F094FEA0B90C2269460B48FC
:1012E00002F08EFE80B90BB05DF804FBFFF730FE14
:1012F000FFF72EFEFFF72CFEFFF72AFEFFF728FE72
:10130000FFF726FEFFF724FEFFF722FE4C06002023
:101310000000014000B58FB000230A930B930C939B
:101320000D930893099301930293039304930593F8
:10133000069307932C482D4A026053224260836033
:1013400044F61F62C26003618023836103F012F8D8
:10135000002839D14FF480530A930AA9224802F099
:10136000BEFE002832D1204803F03AF800282FD1E1
:1013700000230893099308A91B4803F09DF848BB74
:1013800060230193002202920392059201A916485C
:1013900002F08AFD00BB04220DEB0201124802F0AC
:1013A00083FDD8B9082201A90F4802F07DFDB8B924
:1013B0000C2201A90C4802F077FD98B90A4800F008
:1013C00003FB0FB05DF804FBFFF7C2FDFFF7C0FDA4
:1013D000FFF7BEFDFFF7BCFDFFF7BAFDFFF7B8FD55
:1013E000FFF7B6FDFFF7B4FDE40400200004004061
:1013F00000B587B0002302930393049305930093F1
:1014000001931348134A02602D224260836042F226
:101410000F72C2600361836102F0ACFF90B94FF4B8
:101420008053029302A90A4802F059FE60B90023D2
:10143000009301936946064803F03EF830B907B0BF
:101440005DF804FBFFF784FDFFF782FDFFF780FDE9
:101450007C030020000C004000B595B03022002134
:1014600008A803F0D3FB002303930493059306938A
:10147000079301931E4A116C41F080511164126C64
:1014800002F080520192019A02931A4A116841F4C3
:1014900080411160126802F480420292029A022294
:1014A000089201210B9110210C910E920F930823A9
:1014B00010935423119312920423139308A801F05C
:1014C0003DFE80B90F23039302210491002305936D
:1014D0004FF480530693079303A802F07FF820B9D6
:1014E00015B05DF804FBFFF733FDFFF731FD00BFDA
:1014F000003802400070004008B500F085FBFFF79F
:10150000ABFFFFF73DFCFFF7DFFCFFF723FDFFF725
:1015100071FDFFF789FDFFF7A3FDFFF7F9FDFFF769
:101520001DFEFFF741FEFFF75BFEFFF78FFEFFF7A3
:10153000F1FEFFF75DFFFEF7B5FEFFF77BFB002036
:10154000FFF7B4FBFEF7C4FEF9E7000082B000210C
:1015500000910B4B5A6C42F480425A645A6C02F46C
:1015600080420092009A01911A6C42F080521A64F3
:101570001B6C03F080530193019B02B0704700BFC6
:101580000038024030B589B00023039304930593DB
:1015900006930793026803F1804303F590339A4260
:1015A00001D009B030BD04460025019503F58C3308
:1015B0005A6C42F480725A645A6C02F4807201923E
:1015C000019A02951A6B42F001021A631B6B03F039
:1015D00001030293029B0F2303930323049303A9A4
:1015E000104800F061FF1048104B036045608560B3
:1015F000C5604FF4806303614FF4006343614FF4AF
:10160000005383614FF48073C3610562456200F04B
:1016100099FD18B9044BA3639C63C2E7FFF798FCDC
:10162000F8E700BF000002400808002010640240F4
:1016300070B58AB000230593069307930893099326
:101640000368344A934204D0334A93423FD00AB0ED
:1016500070BD044600250195304E336B43F0020304
:101660003363336B03F002030193019B4FF4407328
:10167000059312230693032308930423099305A9D2
:10168000274800F011FF0295336C43F400133364D4
:10169000336C03F400130293029B2248224B036035
:1016A0004FF0007343608560C5604FF48063036151
:1016B00045618561C5610562456200F043FD18B969
:1016C000184BA3639C63C2E7FFF742FCF8E70025D1
:1016D0000395124C236B43F020032363236B03F029
:1016E00020030393039B032305931222069208937E
:1016F0000423099305A90D4800F0D6FE0495236C38
:1017000043F480032364236C03F480030493049B59
:101710009DE700BF005400400058004000380240E0
:101720000004024000070020106002400014024044
:1017300070B58EB0002309930A930B930C930D930D
:101740000368924A934218D00446B3F1804F4BD0BD
:101750008F4A93427DD08F4A934200F0C7808E4AD1
:10176000934200F0D7808D4A934200F0E7808C4A84
:10177000934200F0F7800EB070BD00240094894BB6
:101780005A6C42F001025A645A6C02F00102009253
:10179000009A01941A6B42F010021A631A6B02F05D
:1017A00010020192019A02941A6B42F001021A632C
:1017B0001B6B03F001030293029B4FF4D043099388
:1017C00002260A9601250D9509A9774800F06CFEBE
:1017D0004FF4807309930A960B940C940D9509A904
:1017E000724800F061FEC6E7002303936D4A116C56
:1017F00041F001011164126C02F001020392039A9C
:101800006B486C4A02604FF0C062426040228260C6
:10181000C3604FF4806202614FF4805242614FF422
:1018200080428261C3610362436200F08BFC68B94D
:101830005F4B23629C63E3629C63002211461C2081
:1018400000F0E4FB1C2000F0F1FB94E7FFF780FBC5
:10185000EEE70023049302F50D32116C41F0020112
:101860001164126C02F002020492049A5248534A24
:1018700002604FF02062426040228260C3604FF4F9
:10188000806202614FF4006242614FF40052826153
:10189000C3610362436200F055FC08BB464BE36240
:1018A0009C634748474B03604FF0206343604023ED
:1018B00083600023C3604FF4806202614FF40062D2
:1018C00042614FF400528261C3610362436200F0DF
:1018D00039FC40B93A4B23639C6323629C634AE71B
:1018E000FFF736FBDAE7FFF733FBF3E7002105915B
:1018F0002C4B1A6C42F004021A641B6C03F00403B4
:101900000593059B0A461E2000F080FB1E2000F078
:101910008DFB30E700210691224B1A6C42F0080241
:101920001A641B6C03F008030693069B0A463220D8
:1019300000F06CFB322000F079FB1CE700210791DE
:10194000184B1A6C42F010021A641B6C03F010035F
:101950000793079B0A46362000F058FB362000F01C
:1019600065FB08E7002108910E4B1A6C42F020023B
:101970001A641B6C03F020030893089B0A46372067
:1019800000F044FB372000F051FBF4E6000001407A
:101990000004004000080040000C0040001000401F
:1019A00000140040003802400010024000000240D5
:1019B000B40100202860024054010020B8600240B9
:1019C000F40000204060024000B589B0002303937A
:1019D00004930593069307930368B3F1804F05D0F2
:1019E0001B4A93421CD009B05DF804FB002301930D
:1019F000184B1A6B42F002021A631B6B03F00203CE
:101A00000193019B4FF48063039302230493032308
:101A100006930123079303A90F4800F045FDE2E771
:101A2000002302930B4B1A6B42F004021A631B6BE8
:101A300003F004030293029B4FF470730393022399
:101A40000493079303A9054800F02EFDCBE700BFE0
:101A50000004004000380240000402400008024038
:101A600010B588B00023039304930593069307935E
:101A70000268194B9A4201D008B010BD00240194AD
:101A800003F5F6331A6C42F400221A641A6C02F45D
:101A900000220192019A02941A6B42F004021A6326
:101AA0001B6B03F004030293029B4FF44063039308
:101AB00002230493032306930823079303A90748EB
:101AC00000F0F2FC22462146342000F09FFA342038
:101AD00000F0ACFAD0E700BF004C00400008024024
:101AE000FEE7FEE7FEE7FEE7FEE770477047704758
:101AF00008B500F0A3F808BD08B5024800F0E6FB01
:101B000008BD00BF0007002008B5024800F0DEFB5A
:101B100008BD00BFB401002008B5024800F0D6FBA4
:101B200008BD00BFF400002008B5024801F094FF92
:101B300008BD00BF9805002008B5024801F08CFFE1
:101B400008BD00BF3004002008B5024800F0BEFB0D
:101B500008BD00BF5401002008B5024801F07CFF19
:101B600008BD00BF7C03002008B5024802F08CFECF
:101B700008BD00BFB000002008B5024801F06CFFAE
:101B800008BD00BFC802002008B5024801F064FF8C
:101B900008BD00BF1402002008B5024800F096FB03
:101BA00008BD00BF08080020034AD2F8883043F47B
:101BB0007003C2F88830704700ED00E010B50446AD
:101BC0000E4B1A784FF47A73B3FBF2F30C4A106899
:101BD000B0FBF3F000F038FA68B90F2C01D90120FE
:101BE0000AE0002221464FF0FF3000F00FFA054BCB
:101BF0001C60002000E0012010BD00BF0400002098
:101C0000000000200800002008B50B4B1A6842F4C1
:101C100000721A601A6842F480621A601A6842F40C
:101C200080721A60032000F0DFF90F20FFF7C6FF73
:101C3000FFF78CFC002008BD003C0240034A1168FD
:101C4000034B1B780B441360704700BFB0080020A3
:101C500004000020014B1868704700BFB008002046
:101C60004A4B5A6822F440325A605A6841680A4323
:101C70005A600268536823F48073536002685368A3
:101C8000016943EA012353600268536823F04073FB
:101C900053600268536881680B435360026893681D
:101CA00023F40063936002689368C1680B439360F8
:101CB000826A374B9A4257D00268936823F0706368
:101CC000936002689368816A0B439360026893682B
:101CD00023F04053936002689368C16A0B4393609A
:101CE0000268936823F00203936002689368017EA0
:101CF00043EA4103936090F82030002B3FD0026804
:101D0000536843F4006353600268536823F46043EC
:101D1000536001684B68426A013A43EA42334B60C0
:101D20000268D36A23F47003D3620168CB6AC26984
:101D3000013A43EA0253CB620268936823F40073CA
:101D400093600268936890F8301043EA41239360EF
:101D50000268936823F48063936002689368416922
:101D600043EA8123936070470268936823F07063AD
:101D700093600268936823F040539360B0E7026871
:101D8000536823F400635360CAE700BF0023014097
:101D90000100000F38B310B50446036C43B1236C47
:101DA00013F0100F0BD00120002384F83C3010BD3D
:101DB000FFF7E8FB0023636484F83C30EFE7236C13
:101DC00023F4885323F0020343F0020323642046E4
:101DD000FFF746FF00206064236C23F0030343F009
:101DE00001032364E0E701207047000030B482B0B3
:101DF0000022019290F83C20012A00F0B6800346B0
:101E0000012280F83C200A68092A40D90468E06869
:101E100092B202EB42021E3A4FF0070C0CFA02F2A9
:101E200020EA0202E2601C68E0680A8802EB4202D3
:101E30001E3A8D6805FA02F20243E2604A68062AF9
:101E40003CD81C68606B02EB8202053A4FF01F0C15
:101E50000CFA02F220EA020262631C68606B4A68B4
:101E600002EB8202053AB1F800C00CFA02F202431A
:101E7000626318683E4A904250D018683C4A9042CB
:101E800055D0002083F83C0002B030BC7047046895
:101E9000206992B202EB42024FF0070C0CFA02F2F8
:101EA00020EA020222611C6820690A8802EB4202D1
:101EB0008D6805FA02F202432261BFE70C2A16D8A8
:101EC0001D68286B02EB8202233A1F2404FA02F2F7
:101ED00020EA02022A631D68286B4A6802EB82022C
:101EE000233A0C8804FA02F202432A63C1E71D6810
:101EF000E86A02EB8202413A1F2404FA02F220EA65
:101F00000202EA621D68E86A4A6802EB8202413A0C
:101F10000C8804FA02F20243EA62AAE70A68122A6B
:101F2000ABD11448426842F480024260A5E70A68D7
:101F3000103A012AA5D80F48426842F400024260D4
:101F40000A68102A9DD10C4A12680C49A1FB0212A2
:101F5000920C02EB82025200019202E0019A013AD5
:101F60000192019A002AF9D18BE702208CE700BF89
:101F700000200140002301400000002083DE1B43BD
:101F8000002808DB0901C9B200F1604000F561409A
:101F900080F80013704700F00F000901C9B2014B2F
:101FA0001954704714ED00E000B500F00700C0F1CF
:101FB000070CBCF1040F28BF4FF0040C031D062BC7
:101FC0000FD9C31E4FF0FF3E0EFA0CF021EA0001BC
:101FD00099400EFA03FE22EA0E0241EA02005DF881
:101FE00004FB0023EEE70000074AD36823F4E06314
:101FF0001B041B0C000200F4E060034343F0BF63CA
:1020000043F40033D360704700ED00E010B50446A0
:10201000054BD868C0F30220FFF7C6FF01462046F3
:10202000FFF7AEFF10BD00BF00ED00E0002807DBAA
:1020300000F01F02400901239340024A42F8203079
:10204000704700BF00E100E00138B0F1807F0BD2A3
:102050004FF0E0235861054AF02182F82310002058
:10206000986107221A6170470120704700ED00E077
:1020700010B40368D9B210390C4AA2FB014212090C
:102080000B4CA25CC2655F2909D923F47F7323F04E
:10209000030304338365806D5DF8044B704723F4BC
:1020A0007F7323F003038365F5E700BFABAAAAAAF9
:1020B00028580008836A826992B9012B0AD0022B42
:1020C00002D00BB100207047C36A13F0807F28D183
:1020D00000207047C36AB3F1C07F24D0002070474E
:1020E000B2F5005F09D0022B25D9032B25D1C36A95
:1020F00013F0807F23D100207047032B03D8DFE843
:1021000003F01404140A00207047C36A13F0807FA0
:102110000DD100207047C36AB3F1C07F09D0002001
:10212000704701207047012070470120704701204F
:102130007047012070470120704700207047012040
:102140007047000070B50446FFF784FD002C5BD09B
:102150000546022384F83530002384F834302268A1
:10216000136823F00103136023681A6812F0010F4B
:102170000AD0FFF76FFD431B052BF5D920236365BC
:10218000032084F8350070BD1A6820491140626848
:10219000A0680243E0680243206902436069024389
:1021A000A0690243E0690243206A02430A43616A6C
:1021B00004291ED01A602668756925F00705636A30
:1021C0001D43042B07D1A36A1D43E36A1BB12046BC
:1021D000FFF770FF90B975612046FFF749FFE26D88
:1021E0003F239340836000206065012384F83530ED
:1021F000C9E7E16A206B01430A43DBE740236365DB
:10220000012084F83500BEE70120BCE73F8010F0D4
:1022100070B50446866DFFF71DFD94F83530DBB2CE
:10222000022B06D080236365002384F8343001201C
:1022300070BD05462268136823F0160313602268F8
:10224000536923F080035361236CE3B12268136860
:1022500023F0080313602268136823F0010313605E
:1022600023681B6813F0010F11D0FFF7F3FC431B29
:10227000052BF5D920236365032084F8350000235E
:1022800084F83430D4E7A36C002BDFD1E3E7E26DB0
:102290003F239340B360012384F83530002084F855
:1022A0003400C5E790F83530DBB2022B03D0802331
:1022B000436501207047052380F8353002681368B4
:1022C00023F001031360002070470000F0B583B0D5
:1022D000044600230193724B1D68724BA3FB053526
:1022E000AD0A876D3E68C26D08239340334210D01B
:1022F00003681A6812F0040F0BD01A6822F0040267
:102300001A60C26D08239340BB60436D43F0010324
:102310004365E26D01239340334209D0226852693C
:1023200012F0800F04D0BB60636D43F0020363655D
:10233000E26D04239340334209D02268126812F000
:10234000020F04D0BB60636D43F004036365E26D6C
:1023500010239340334224D02268126812F0080FF1
:102360001FD0BB6023681A6812F4802F0DD01B6841
:1023700013F4002F04D1236C9BB12046984710E042
:10238000A36C73B1204698470BE01A6812F4807F63
:1023900003D11A6822F008021A60236C0BB12046A0
:1023A0009847E26D20239340334255D0226812684B
:1023B00012F0100F50D0BB6094F83530DBB2052B13
:1023C0000ED023681A6812F4802F33D01B6813F4E0
:1023D000002F2AD1636C002B3ED0204698473BE06B
:1023E0002268136823F0160313602268536923F0F0
:1023F00080035361236CA3B12268136823F00803A0
:102400001360E26D3F239340BB60012384F83530B5
:10241000002384F83430236D002B3FD020469847AA
:102420003CE0A36C002BE7D1EBE7E36BA3B12046C4
:10243000984711E01A6812F4807F09D11A6822F0D7
:1024400010021A60012384F83530002384F83430F8
:10245000E36B0BB120469847636DFBB1636D13F0DE
:10246000010F17D0052384F835302268136823F054
:1024700001031360019B01330193AB4204D823682D
:102480001B6813F0010FF5D1012384F835300023C8
:1024900084F83430E36C0BB12046984703B0F0BDAC
:1024A00000000020B5814E1B00230F2B00F2E980B5
:1024B00070B582B065E085684FEA430E032404FAE4
:1024C0000EF425EA0405CC6804FA0EF42C4384606B
:1024D000446824EA02044A68C2F300129A40224384
:1024E00042605CE0DC08083450F8242003F0070563
:1024F000AD004FF00F0E0EFA05FE22EA0E0E0A692D
:10250000AA4042EA0E0240F824205CE0072200E0E4
:10251000002202FA0EF22A4302345A4D45F82420D2
:10252000594A94686FEA0C0224EA0C054E6816F4C6
:10253000801F01D04CEA0405534CA560E46802EA10
:1025400004054E6816F4001F01D04CEA04054E4CF9
:10255000E560646802EA04054E6816F4003F01D0A5
:102560004CEA0405484C6560246822404D6815F427
:10257000803F01D04CEA0402434C226001330F2B10
:102580007DD801229A400C6804EA020C32EA040465
:10259000F4D14C6804F00304013C012C8BD94A6847
:1025A00002F00302032A09D0C4685D000322AA4096
:1025B00024EA02048A68AA402243C2604A6802F000
:1025C0000302022A8ED004684FEA430E032202FA65
:1025D0000EF224EA02044A6802F0030202FA0EF242
:1025E000224302604A6812F4403FC7D000220192A1
:1025F000264A546C44F480445464526C02F4804281
:102600000192019A9C08A51C1E4A52F8255003F01D
:10261000030E4FEA8E0E0F2202FA0EF225EA020591
:102620001B4A90423FF474AF02F5806290421AD088
:1026300002F58062904218D002F58062904216D076
:1026400002F58062904214D002F58062904212D06E
:1026500002F58062904210D002F5806290423FF411
:1026600055AF082255E7012253E7022251E7032222
:102670004FE704224DE705224BE7062249E702B067
:1026800070BD704700380140003C014000380240F6
:10269000000002400AB181617047090481617047FE
:1026A00003685A6912F4806F01D1002070476FF4FB
:1026B00080625A6100230363202280F83D2080F865
:1026C0003E30026C42F00402026480F83C3001208B
:1026D00070472DE9F04107460D4690461E4624E01E
:1026E000FFF7B8FA069BC01AB04200D8EEB9002333
:1026F0003B63202287F83D2087F83E303A6C42F059
:1027000020023A6487F83C3001201EE03B689C6957
:1027100025EA040C1FFA8CFCBCFA8CFC4FEA5C1C0A
:10272000E04511D1B6F1FF3FDAD1C5F30743012BE4
:10273000ECD13B685B6925EA030C1FFA8CFCBCFA00
:102740008CFC4FEA5C1CEBE70020BDE8F0812DE932
:10275000F04105460E46174698463DE01A6842F499
:1027600000721A602B686FF480625A6100232B6339
:10277000202285F83D2085F83E302A6C42F0040284
:102780002A6485F83C30012034E0FFF763FAA0EBBF
:102790000800B84200D8FFB900232B63202285F837
:1027A0003D2085F83E302A6C42F020022A6485F8EC
:1027B0003C3001201EE02B689C6926EA0404A4B288
:1027C000003C18BF0124A4B12B685A6912F4806F31
:1027D000C4D1B7F1FF3FD8D1C6F30743012BEAD1EB
:1027E0002B685C6926EA0404A4B2003C18BF0124EB
:1027F000E9E70020BDE8F08170B504460D461646B5
:1028000023685B6913F0800F1CD12046FFF748FF57
:10281000D0B9B5F1FF3FF3D0FFF71CFA801BA842F7
:1028200001D8002DECD100232363202284F83D2021
:1028300084F83E30226C42F02002226484F83C305E
:10284000012000E0002070BD0120FCE72DE9F043ED
:1028500085B004460D4691461F46DDF830800D9E3A
:102860000368196841F4807119600096434600229C
:102870004FF00111FFF72DFF60B9236805F0FE0549
:102880001D613346424626492046FFF760FF68B186
:10289000012008E023681B6813F4807F02D04FF406
:1028A00000732364032005B0BDE8F0830023039385
:1028B00023685A6903929B690393039B32464146FE
:1028C0002046FFF799FF30B9012F0FD123685FFA37
:1028D00089F61E61E7E7236C042B01D00120E2E7B3
:1028E0002268136843F400731360F7E723684FEA24
:1028F00019221A61324641462046FFF77DFF20B972
:1029000023685FFA89F61E61CDE7236C042B01D0A2
:102910000120C8E72268136843F400731360F7E7E7
:10292000020001002DE9F04784B004460D4616462A
:1029300099460C9FDDF834800268136843F4806385
:1029400013600368196841F480711960CDF8008044
:102950003B4600224FF00111FFF7BBFE70B95FFA52
:1029600085FA236805F0FE051D6143463A46414954
:102970002046FFF7ECFE68B1012008E023681B68E1
:1029800013F4807F02D04FF400732364032004B05B
:10299000BDE8F0870023039323685A6903929B697B
:1029A0000393039B424639462046FFF725FF80B933
:1029B000B9F1010F18D12368F6B21E6142463946BB
:1029C0002046FFF719FF68B3236C042B24D00120A5
:1029D000DDE7236C042B01D00120D8E722681368BF
:1029E00043F400731360F7E72368320A1A61424622
:1029F00039462046FFF700FF18B92368F6B21E617A
:102A0000DCE7236C042B01D00120C0E722681368A7
:102A100043F400731360F7E72268136843F400730C
:102A20001360D4E72268136843F480731360CDF811
:102A300000803B4600224FF001112046FFF749FE7F
:102A400068B922684AF00103136143463A460949CE
:102A50002046FFF77CFE002899D0012097E72368E5
:102A60001B6813F4807F02D04FF4007323640320AB
:102A70008DE700BF0200010070B504460D46164602
:102A800023685B6913F0040F1CD12046FFF708FE92
:102A9000D0B9B5F1FF3FF3D0FFF7DCF8801BA842B7
:102AA00001D8002DECD100232363202284F83D209F
:102AB00084F83E30226C42F02002226484F83C30DC
:102AC000012000E0002070BD0120FCE770B5054644
:102AD0000C4616462B68596911F0400F29D15969E7
:102AE00011F0100F15D1FFF7B5F8801BA04201D8E7
:102AF000002CEFD100232B63202285F83D2085F8A0
:102B00003E302A6C42F020022A6485F83C300120D5
:102B100070BD6FF010025A6100232B63202285F8EC
:102B20003D2085F83E302A6C2A6485F83C3001202F
:102B3000EEE70020ECE70000002800F0CC8070B544
:102B4000044690F83D30002B77D0242384F83D30A4
:102B50002268136823F0010313602268136843F4AA
:102B6000004313602268136823F40043136000F0ED
:102B7000EBFD62685A4B9A4264D85A4B98428CBF1C
:102B800000230123002B40F0A8805749A1FB00310E
:102B90008B0C25686A6822F03F0242EA91426A6023
:102BA00021680A6A22F03F0266684D4DAE424FD856
:102BB000013313430B622168CA6922F44F4222F0A9
:102BC000FF026568464B9D424CD8431E6D00B3FB27
:102BD000F5F3013340F6FC70034278D0C3F30B03E6
:102BE0001A43CA6121680B6823F0C003E269206AB6
:102BF000024313430B6021688B6823F4034323F0E3
:102C0000FF032269E068024313438B602168CB68AD
:102C100023F0FF036269A06902431343CB6022687B
:102C2000136843F00103136000202064202384F81C
:102C30003D30206384F83E0070BD80F83C30FEF7E4
:102C4000F7FC82E7294B98428CBF0023012399E7C8
:102C50004FF4967505FB03F3254DA5FB03539B0924
:102C60000133A6E7A668BEB9431E05EB450CB3FBCE
:102C7000FCF30133C3F30B03B3FA83F35B0943BBE8
:102C8000C6B9431E05EB4505B3FBF5F30133C3F3AA
:102C90000B0343F40043A3E7431E05EB850C0CEB49
:102CA0008C0CB3FBFCF30133C3F30B03B3FA83F3D4
:102CB0005B09E4E7431E05EB850505EB8505B3FBE2
:102CC000F5F30133C3F30B0343F4404388E70423D4
:102CD00086E7012384E7012070470120ACE700BFAD
:102CE000A08601007F841E0083DE1B43FF083D0099
:102CF000D34D62102DE9F04383B004460F46904651
:102D000099460C9EFEF7A6FF054694F83D00C0B21A
:102D1000202803D0022003B0BDE8F08300951923DA
:102D200001224B492046FFF7D4FC002840F089805F
:102D300094F83C30012B00F08680012384F83C306D
:102D400023681A6812F0010F03D11A6842F00102D9
:102D50001A602268136823F400631360212384F847
:102D60003D30402384F83E30002323640A9B636295
:102D7000BDF82C306385638D2385364BE362019566
:102D800000964B46424639462046FFF75FFD002835
:102D90005BD1238D002B35D02A4631462046FFF7E4
:102DA0002BFD20BB626A236812781A61626A531C89
:102DB0006362218D013989B22185638D9BB2013B0C
:102DC0009BB263852368586910F0040FE1D0002995
:102DD000DFD052781A61636A01336362238D013B4D
:102DE0002385638D9BB2013B9BB26385D1E7236C46
:102DF000042B01D001208EE72268136843F400738E
:102E00001360F7E72A4631462046FFF735FE50B1FA
:102E1000236C042B01D001207DE72268136843F462
:102E200000731360F7E72268136843F400731360BC
:102E3000202384F83D30002384F83E3084F83C3071
:102E400069E7022067E7022065E7012063E700BF2A
:102E5000020010000000FFFF2DE9F04387B0044698
:102E60000F4690469946109EFEF7F4FE054694F8EC
:102E70003D00C0B2202804D00227384607B0BDE884
:102E8000F08300951923012288492046FFF721FC91
:102E9000002840F0438194F83C30012B00F0408141
:102EA000012384F83C3023681A6812F0010F03D123
:102EB0001A6842F001021A602268136823F4006362
:102EC0001360222384F83D30402384F83E300023F1
:102ED00023640E9B6362BDF83C306385638D23855C
:102EE000734BE362019500964B46424639462046B5
:102EF000FFF718FD0746002840F01481238D5BB9C9
:102F0000029323685A6902929A690292029A1A6895
:102F100042F400721A6075E0012B0AD0022B1AD01D
:102F20000023059323685A6905929B690593059BC5
:102F300068E02268136823F480631360002303931E
:102F400023685A6903929A690392039A1A6842F4B1
:102F500000721A6056E02268136823F480631360DD
:102F60002268136843F4006313600023049323680A
:102F70005A6904929B690493049B43E02A463146B4
:102F80002046FFF7A3FD002840F0CE8023681A6991
:102F9000636A1A70636A01336362238D013B238580
:102FA000638D9BB2013B9BB263852BE0009533465A
:102FB000002240492046FFF78CFB002840F0B680F5
:102FC0002268136843F40073136023681A69636A04
:102FD0001A70626A531C6362238D013B2385638DE3
:102FE0009BB2013B9BB2638523681B695370636A84
:102FF00001336362238D013B2385638D9BB2013BCB
:103000009BB26385238D002B7FD0032B54D8012BDB
:10301000B4D0022BCAD00095334600222549204661
:10302000FFF757FB002840F083802268136823F4E1
:103030008063136023681A69636A1A70636A0133D4
:103040006362238D013B2385638D9BB2013B9BB261
:10305000638500953346002216492046FFF739FB69
:10306000002867D12268136843F400731360236853
:103070001A69636A1A70626A531C6362238D013B8A
:103080002385638D9BB2013B9BB2638523681B69DB
:103090005370636A01336362238D013B2385638D23
:1030A0009BB2013B9BB26385ACE700BF02001000FE
:1030B0000000FFFF040001002A4631462046FFF7CA
:1030C00005FD002838D123681A69636A1A70626A9C
:1030D000531C6362238D013B2385638D9BB2013BAF
:1030E0009BB263852368596911F0040F8AD01B696C
:1030F0005370636A01336362238D013B2385638DC3
:103100009BB2013B9BB263857CE7202384F83D3072
:10311000002384F83E3084F83C30AEE60227ACE66B
:103120000227AAE60127A8E60127A6E60127A4E6CA
:103130000127A2E60127A0E601279EE6002800F06D
:10314000E08170B582B00446036813F0010F3BD0F4
:103150009F4B9B6803F00C03042B2CD09C4B9B686B
:1031600003F00C03082B21D06368B3F5803F4FD0E8
:10317000B3F5A02F52D0964B1A6822F480321A6011
:103180001A6822F480221A606368002B50D0FEF780
:1031900061FD05468E4B1B6813F4003F14D1FEF70A
:1031A00059FD401B6428F5D90320B1E1884B5B68C9
:1031B00013F4800FD8D0864B1B6813F4003F03D064
:1031C0006368002B00F09F81236813F0020F54D036
:1031D0007F4B9B6813F00C0F3ED07D4B9B6803F038
:1031E0000C03082B33D0E368002B68D0794B012205
:1031F0001A60FEF72FFD0546754B1B6813F0020F92
:1032000054D1FEF727FD401B0228F5D903207FE1AA
:103210006F4A136843F480331360B5E76C4B1A6848
:1032200042F480221A601A6842F480321A60ABE7D6
:10323000FEF710FD0546664B1B6813F4003FC3D034
:10324000FEF708FD401B6428F5D9032060E1604BC0
:103250005B6813F4800FC6D15D4B1B6813F0020F3F
:1032600003D0E368012B40F05081594A136823F0E2
:10327000F803216943EAC1031360236813F0080FC0
:1032800042D063696BB3534B0122C3F8802EFEF723
:10329000E1FC05464E4B5B6F13F0020F34D1FEF795
:1032A000D9FC401B0228F5D9032031E1484A1368B4
:1032B00023F0F803216943EAC1031360DDE7454BBE
:1032C00000221A60FEF7C6FC0546414B1B6813F04E
:1032D000020FD2D0FEF7BEFC401B0228F5D9032016
:1032E00016E13C4B0022C3F8802EFEF7B3FC0546E6
:1032F000374B5B6F13F0020F06D0FEF7ABFC401BA1
:103300000228F5D9032003E1236813F0040F77D0D6
:103310002F4B1B6C13F0805F33D1002301932C4B98
:103320001A6C42F080521A641B6C03F080530193B4
:10333000019B0125284B1B6813F4807F23D0A368D1
:10334000012B34D0052B38D0214B1A6F22F001020B
:103350001A671A6F22F004021A67A368002B3DD087
:10336000FEF778FC06461A4B1B6F13F0020F46D18E
:10337000FEF770FC801B41F288339842F3D903209A
:10338000C6E00025D6E7144A136843F4807313603F
:10339000FEF760FC0646104B1B6813F4807FCED10D
:1033A000FEF758FC801B0228F5D90320B0E0084A3C
:1033B000136F43F001031367CFE7054B1A6F42F019
:1033C00004021A671A6F42F001021A67C5E700BFCC
:1033D000003802400000474200700040FEF73AFC0F
:1033E0000646524B1B6F13F0020F08D0FEF732FC5B
:1033F000801B41F288339842F3D9032088E0EDB96D
:10340000A369002B00F08380484A926802F00C0206
:10341000082A51D0022B17D0454B00221A66FEF71E
:1034200019FC0446414B1B6813F0007F42D0FEF7A5
:1034300011FC001B0228F5D9032069E03B4A136CFC
:1034400023F080531364DBE7394B00221A66FEF742
:1034500001FC0546354B1B6813F0007F06D0FEF7D4
:10346000F9FB401B0228F5D9032051E0E369226AE9
:103470001343626A43EA8213A26A5208013A43EA9A
:103480000243E26A43EA0263284A5360284B01225E
:103490001A66FEF7DFFB0446244B1B6813F0007F1F
:1034A00006D1FEF7D7FB001B0228F5D903202FE039
:1034B00000202DE000202BE0012B2BD01B4B5B6864
:1034C00003F48001E269914226D103F03F02216AB0
:1034D0008A4223D1616A47F6C0721A40B2EB811F5B
:1034E0001ED103F44031A26A5208013AB1EB024FF7
:1034F00018D103F07063E26AB3EB026F14D10020BD
:1035000006E001207047012002E0012000E00020D9
:1035100002B070BD0120FBE70120F9E70120F7E7C9
:103520000120F5E70120F3E70120F1E70038024030
:103530000000474208B5264B9B6803F00C03042BA0
:1035400041D0082B41D1224B5A6802F03F025B6800
:1035500013F4800F12D01E4B5968C1F388111D4817
:103560000023A1FB0001FCF763FE194B5B68C3F36A
:10357000014301335B00B0FBF3F027E0144B5868C4
:10358000C0F388104FEA401CBCEB000C6EEB0E0E33
:103590004FEA8E1343EA9C634FEA8C11B1EB0C01A6
:1035A00063EB0E03DB0043EA5173C90011EB000C1F
:1035B00043F10003990200234FEA8C2041EA9C5119
:1035C000FCF736FED1E7034800E0034808BD00BF22
:1035D0000038024040787D010024F400002800F00B
:1035E0009B8070B50D4604464F4B1B6803F00703E4
:1035F0008B4208D2CBB24C4A1370136803F0070316
:103600008B4240F08B80236813F0020F17D013F029
:10361000040F04D0454A936843F4E0539360236851
:1036200013F0080F04D0414A936843F46043936059
:103630003E4A936823F0F003A1680B43936023682C
:1036400013F0010F32D06368012B21D09A1E012A9A
:1036500025D9364A126812F0020F61D033498A68C0
:1036600022F0030213438B60FEF7F4FA06462F4B59
:103670009B6803F00C036268B3EB820F16D0FEF771
:10368000E9FA801B41F288339842F0D9032042E0E6
:10369000264A126812F4003FE0D101203BE0234AA1
:1036A000126812F0007FD9D1012034E01E4B1B6854
:1036B00003F00703AB4207D9EAB21B4B1A701B6831
:1036C00003F00703AB422DD1236813F0040F06D09B
:1036D000164A936823F4E053E1680B439360236830
:1036E00013F0080F07D0114A936823F4604321694F
:1036F00043EAC1039360FFF71DFF0C4B9B68C3F3C4
:1037000003130B4AD35CD8400A4B18600A4B186865
:10371000FEF754FA002070BD012070470120FAE73F
:103720000120F8E70120F6E7003C024000380240A3
:10373000185800080000002008000020014B1868FD
:10374000704700BF0000002008B5FFF7F7FF044BEB
:103750009B68C3F38223034AD35CD84008BD00BFF3
:10376000003802401058000808B5FFF7E7FF044B87
:103770009B68C3F34233034AD35CD84008BD00BF03
:103780000038024010580008704770477047704773
:103790007047704770477047704770477047000028
:1037A00030B4036A23F001030362036A4268846948
:1037B00024F0730C0C6844EA0C0423F0020C8B68B0
:1037C00043EA0C03114DA84203D005F58065A842D9
:1037D00005D123F00803CD682B4323F004030B4DE0
:1037E000A84203D005F58065A84207D122F44072B3
:1037F0004D6945EA020C8A6942EA0C024260846122
:103800004A684263036230BC704700BF0000014059
:1038100030B4036A23F480730362036A4268C469A4
:1038200024F0730C0C6844EA0C0523F400738C68D4
:1038300043EA0423114CA04203D004F58064A04263
:1038400006D123F40063CC6843EA042323F48063A5
:103850000A4CA04203D004F58064A04207D122F4B0
:1038600040524C6942EA04128C6942EA04124260F6
:10387000C5614A68C263036230BC70470000014002
:1038800030B4036A23F480530362036A4468C26954
:1038900022F4E6420D6842EA052223F400538D68C3
:1038A00043EA0533094DA84203D005F58065A842D7
:1038B00004D124F480444D6944EA85144460C26113
:1038C0004A680264036230BC704700BF00000140D8
:1038D00010B4036A046A24F001040462846924F0C9
:1038E000F00C4CEA021223F00A030B4382610362DC
:1038F0005DF8044B704730B4046A24F0100404628D
:103900008469056A24F4407C4CEA022C2CF4704C47
:103910001B039BB243EA0C0325F0A005090101F04B
:10392000A00129438361016230BC704710B4036A6F
:1039300023F0100303628469036A24F4704C4CEA98
:10394000023223F0A00343EA0113826103625DF8AF
:10395000044B704730B4046A24F480740462C46970
:10396000056A24F0030C4CEA020C2CF0F00C1B014D
:10397000DBB243EA0C0325F42065090201F420615F
:103980002943C361016230BC704730B4046A24F437
:1039900080540462C469056A24F4407C4CEA022C19
:1039A0002CF4704C1B039BB243EA0C0325F4204516
:1039B000090301F420412943C361016230BC70470F
:1039C000836823F070030B4343F007038360704761
:1039D00090F83D30DBB2012B37D1022380F83D3027
:1039E0000268D36843F00103D3600368194A934225
:1039F00020D0B3F1804F1DD0A2F57C42934219D064
:103A000002F58062934215D002F58062934211D094
:103A100002F5784293420DD002F57052934209D0DC
:103A2000A2F59432934205D01A6842F001021A605E
:103A3000002070479A6802F00702062A07D01A6829
:103A400042F001021A6000207047012070470020F8
:103A5000704700BF0000014010B5044603681A69B2
:103A600012F0020F13D0DA6812F0020F0FD06FF0CD
:103A700002021A610123037703689B6913F0030FA5
:103A800000F09280D0F89030984700232377236885
:103A90001A6912F0040F14D0DA6812F0040F10D073
:103AA0006FF004021A610223237723689B6913F4E1
:103AB000407F00F08180D4F8903020469847002362
:103AC000237723681A6912F0080F13D0DA6812F00E
:103AD000080F0FD06FF008021A61042323772368C0
:103AE000DB6913F0030F70D0D4F89030204698476C
:103AF0000023237723681A6912F0100F13D0DA68B5
:103B000012F0100F0FD06FF010021A610823237704
:103B10002368DB6913F4407F60D0D4F890302046EE
:103B200098470023237723681A6912F0010F0AD0FF
:103B3000DA6812F0010F06D06FF001021A61D4F8B2
:103B400080302046984723681A6912F0800F0AD007
:103B5000DA6812F0800F06D06FF080021A61D4F894
:103B6000B0302046984723681A6912F0400F0AD0F7
:103B7000DA6812F0400F06D06FF040021A61D4F8F4
:103B800088302046984723681A6912F0200F0AD01F
:103B9000DA6812F0200F06D06FF020021A61D4F814
:103BA000A8302046984710BDD0F898309847D4F8F0
:103BB0009C302046984768E7D4F8983020469847CC
:103BC000D4F89C302046984779E7D4F898302046BE
:103BD0009847D4F89C302046984789E7D4F8983025
:103BE00020469847D4F89C302046984799E7002A09
:103BF00000F0BA8010B40346144690F83C20012A25
:103C000000F0B480012280F83C2090F83D00C0B262
:103C1000904212D093F83D2002F0FF00002A40F0BD
:103C20009A800D2900F29E80DFE801F0787B7D7F8D
:103C300081838587898B8D8F91931A2900F28C80DF
:103C4000DFE801F00E1114171A1D202326292C2F4E
:103C50003235383C4044484C5054585C60646800ED
:103C60009C64084678E0DC64002075E01C65002058
:103C700072E05C6500206FE09C6500206CE0DC6514
:103C8000002069E01C66002066E05C66002063E0BE
:103C90009C66002060E0DC6600205DE01C67002080
:103CA0005AE05C67002057E09C67002054E0DC6726
:103CB000002051E0C3F8804000204DE0C3F884406C
:103CC000002049E0C3F88840002045E0C3F88C405C
:103CD000002041E0C3F8904000203DE0C3F894404C
:103CE000002039E0C3F89840002035E0C3F89C403C
:103CF000002031E0C3F8A04000202DE0C3F8A4402C
:103D0000002029E0C3F8A840002025E0C3F8AC401B
:103D1000002021E0C3F8B04000201DE09C6408466C
:103D20001AE0DC6418E01C6516E05C6514E09C6534
:103D300012E0DC6510E01C660EE05C660CE09C6640
:103D40000AE0DC6608E01C6706E05C6704E09C674C
:103D500002E0DC6700E00120002283F83C205DF8EF
:103D6000044B70470120F7E7012070470220F6E777
:103D70000368304A904212D0B0F1804F0FD0A2F5C4
:103D80007C4290420BD002F58062904207D002F54F
:103D90008062904203D002F57842904203D123F032
:103DA00070034A681343234A90422AD0B0F1804FEF
:103DB00027D0A2F57C42904223D002F58062904247
:103DC0001FD002F5806290421BD002F578429042EB
:103DD00017D002F57052904213D002F580629042E3
:103DE0000FD002F5806290420BD0A2F5983290423B
:103DF00007D002F58062904203D002F580629042C3
:103E000003D123F44073CA68134323F080034A6943
:103E1000134303608B68C3620B688362054B98424F
:103E200003D003F58063984201D10B69036301233A
:103E3000436170470000014030B4036A23F010036F
:103E40000362036A4468826922F4E6420D6842EA2A
:103E5000052223F020038D6843EA0513114DA84283
:103E600003D005F58065A84206D123F08003CD6814
:103E700043EA051323F040030A4DA84203D005F599
:103E80008065A84207D124F440644D6944EA850462
:103E90008D6944EA8504446082614A6882630362F2
:103EA00030BC70470000014038B590F83C30012B21
:103EB00066D004460D46012380F83C300C2A5AD8BF
:103EC000DFE802F0075959591B59595930595959C6
:103ED00044000068FFF764FC2268936943F008031C
:103EE00093612268936923F00403936122689369C4
:103EF00029690B43936100203EE00068FFF79CFFB7
:103F00002268936943F4006393612268936923F400
:103F10008063936122689369296943EA012393616D
:103F2000002029E00068FFF773FC2268D36943F0A2
:103F30000803D3612268D36923F00403D3612268A4
:103F4000D36929690B43D361002015E00068FFF7AE
:103F500097FC2268D36943F40063D3612268D36974
:103F600023F48063D3612268D369296943EA01237A
:103F7000D361002000E00120002384F83C3038BDEC
:103F80000220FCE770B49446046A24F00104046241
:103F90008469066A184DA8421CD0B0F1804F19D030
:103FA000164A904216D002F58062904212D002F575
:103FB000806290420ED002F5784290420AD002F51B
:103FC0007052904206D0A2F59432904202D044F052
:103FD000010203E024F0030242EA0C0222F0F002A4
:103FE0001B01DBB2134326F00A0201F00A01114360
:103FF0008361016270BC7047000001400004004012
:1040000038B590F83C30012B5AD004460D460123B8
:1040100080F83C3052B1042A1AD0082A2BD00C2A3E
:104020003BD00120002384F83C3038BDCB684A687F
:1040300009680068FFF7A6FF2268936923F00C0364
:10404000936122689369A9680B4393610020E9E7B3
:10405000CB684A6809680068FFF74DFC22689369DD
:1040600023F44063936122689369A96843EA0123BA
:1040700093610020D6E7CB684A6809680068FFF7BB
:1040800069FC2268D36923F00C03D3612268D369E9
:10409000A9680B43D3610020C4E7CB684A6809686C
:1040A0000068FFF772FC2268D36923F44063D36190
:1040B0002268D369A96843EA0123D3610020B1E7EC
:1040C0000220B2E710B4846824F47F4C42EA032251
:1040D0000A4342EA0C0282605DF8044B704790F894
:1040E0003C30012B78D010B50446012380F83C30D9
:1040F000022380F83D300268936823F47F4323F065
:10410000770393600B68602B4CD029D8402B54D098
:104110000CD9502B22D1CA6849680068FFF7D8FB38
:1041200050212068FFF74CFC002005E0202B0DD02B
:1041300009D9302B0AD00120012384F83D30002317
:1041400084F83C3010BD0BB1102B05D11946206806
:10415000FFF736FC0020EFE70120EDE70120EBE759
:10416000B3F5805F34D0B3F5005F0CD1CB684A68FB
:1041700089680068FFF7A6FF2268936843F48043CC
:1041800093600020D8E7702B24D1CB684A688968F7
:104190000068FFF797FF2268936843F07703936006
:1041A0000020C9E7CA6849680068FFF7BFFB6021C3
:1041B0002068FFF705FC0020BEE7CA684968006870
:1041C000FFF786FB40212068FFF7FAFB0020B3E7EA
:1041D0000020B1E70120AFE70220704701F01F0186
:1041E0004FF0010C0CFA01FC036A23EA0C03036292
:1041F000036A8A40134303627047000038B50446DF
:104200000D460C2970D8DFE801F0076F6F6F326F31
:104210006F6F3B6F6F6F44000268D36823F40073C5
:10422000D360406AFEF73EF8002229462068FFF777
:10423000D5FF23682D4A934234D002F58062934221
:1042400030D02368196A41F21112114208D1196A5B
:1042500040F24442114203D11A6822F001021A606E
:10426000002D2ED1012384F83E3000203DE002686D
:10427000D36823F48063D360806AFEF713F8D3E732
:104280000268D36823F40063D360C06AFEF70AF8BB
:10429000CAE70268D36823F48053D360006BFEF74B
:1042A00001F8C1E7196A41F211121142C9D1196A24
:1042B00040F244421142C4D15A6C22F400425A6482
:1042C000BFE7042D06D0082D09D0012384F8413022
:1042D00000200AE0012384F83F30002005E001239C
:1042E00084F84030002000E0012038BD000001408B
:1042F000134BC0F88030134BC0F88430124BC0F819
:104300008830124BC0F88C30114BC0F89030114BF4
:10431000C0F89430104BC0F89830104BC0F89C3067
:104320000F4BC0F8A0300F4BC0F8A4300E4BC0F8B4
:10433000A8300E4BC0F8AC300D4BC0F8B030704711
:104340008D3700088F370008993700089B37000821
:10435000933700089537000891370008550D00087D
:10436000973700089D370008454500084745000875
:104370004945000880B310B5044690F83D30F3B1CC
:10438000022384F83D30214651F8040BFFF7F0FC7E
:10439000012384F8463084F83E3084F83F3084F8B6
:1043A000403084F8413084F8423084F8433084F857
:1043B000443084F8453084F83D30002010BD80F84A
:1043C0003C30FFF795FFA36C1BB1A36C20469847C8
:1043D000D6E7024BA364F8E70120704731170008C5
:1043E00080B310B5044690F83D30F3B1022384F851
:1043F0003D30214651F8040BFFF7BAFC012384F845
:10440000463084F83E3084F83F3084F8403084F8F9
:10441000413084F8423084F8433084F8443084F8E2
:10442000453084F83D30002010BD80F83C30FFF767
:104430005FFF236E1BB1236E20469847D6E7024BE1
:104440002366F8E7012070478937000880B310B56C
:10445000044690F83D30F3B1022384F83D30214604
:1044600051F8040BFFF784FC012384F8463084F8EC
:104470003E3084F83F3084F8403084F8413084F88E
:10448000423084F8433084F8443084F8453084F86E
:104490003D30002010BD80F83C30FFF729FF236D30
:1044A0001BB1236D20469847D6E7024B2365F8E7FA
:1044B000012070478B37000890F83C20012A3DD03E
:1044C00010B40346012280F83C20022280F83D20EF
:1044D00002685068946820F0700C086840EA0C008C
:1044E00050601A68164882421AD0B2F1804F17D035
:1044F000A0F57C40824213D000F5806082420FD04C
:1045000000F5806082420BD000F57840824207D0EF
:1045100000F57050824203D0A0F59430824204D15D
:1045200024F08004496821439160012283F83D20F2
:10453000002083F83C005DF8044B70470220704770
:1045400000000140704770477047026802F10C0399
:1045500053E8003F23F490730C3242E80031002905
:10456000F3D1026802F1140353E8003F23F0010382
:10457000143242E800310029F3D1036B012B05D03E
:10458000202380F83E30002303637047026802F165
:104590000C0353E8003F23F010030C3242E80031D3
:1045A0000029F3D1ECE790F83D30DBB2212B01D0AC
:1045B000022070478368B3F5805F17D0036A5A1CE6
:1045C00002621A7803685A60C38C9BB2013B9BB2AB
:1045D000C3844BB90268D36823F08003D3600268B8
:1045E000D36843F04003D360002070470369002B79
:1045F000E4D1036A1B880268C3F308035360036AAB
:1046000002330362E0E7000010B504460268136954
:1046100023F44053C1680B431361836802691A4352
:1046200043691A43C3691A430168CB6823F41643EC
:1046300023F00C031343CB600268536923F44073E7
:1046400081690B4353610368314A934206D002F5F6
:104650008062934202D0FFF777F801E0FFF784F819
:10466000E369B3F5004F29D00021031849411B1815
:1046700041F10001C90041EA5371DB001818636879
:104680004FEA83024FEA937341F10001FBF7D0FD3B
:10469000204AA2FB00314909642303FB11031B01DB
:1046A0003233A2FB03235B0903F0F00202EB011299
:1046B00003F00F03216813448B6010BD0023021820
:1046C00043EB0301121841F10001C90041EA5271A4
:1046D000D200101841F10001626892185B41FBF7AB
:1046E000A7FD0C4AA2FB00314909642303FB110317
:1046F000DB003233A2FB03235B095A0002F4F87299
:1047000002EB011203F00703216813448B60D4E726
:10471000001001401F85EB5158B310B5044690F8C6
:104720003D300BB3242384F83D302268D36823F452
:104730000053D3602046FFF767FF2268136923F414
:10474000904313612268536923F02A03536122685E
:10475000D36843F40053D36000202064202384F8FE
:104760003D3084F83E3010BD80F83C30FDF778F9DC
:10477000D8E701207047704708B50168CA6822F081
:104780004002CA60202280F83D20FFF7F4FF00209D
:1047900008BD704708B5806B0023C385C384FFF74D
:1047A000F8FF08BD704790F83E30DBB2222B67D18E
:1047B0008368B3F5805F4DD0826AB3F5805F04D023
:1047C000002B54D10369002B51D103685B6813702F
:1047D000836A01338362C38D9BB2013B9BB2C38565
:1047E000002B4FD100B583B00268D36823F02003BB
:1047F000D3600268D36823F48073D360026853697E
:1048000023F001035361202380F83E30036B012B1A
:1048100033D100230363026802F10C0353E8003F25
:1048200023F010030C3242E800310029F3D1036871
:104830001A6812F0100F06D0002201921A68019235
:104840005B680193019B818DFFF7ACFF002003B0F3
:104850005DF804FB0269002AAED1826A03685B68D6
:10486000C3F308031380836A02338362B3E70368E8
:104870005B6803F07F031370AAE7FCF773FAE5E7C0
:10488000022070470020704710B582B004460268CD
:104890001368D068516913F00F0F09D113F0200F7E
:1048A0000CD010F0200F09D02046FFF77CFF16E057
:1048B00011F0010115D110F4907F12D1216B012963
:1048C00079D013F0800F03D010F0800F40F01081EA
:1048D00013F0400F03D010F0400F40F00D8102B0F4
:1048E00010BD13F0010F06D010F4807F03D0226CAE
:1048F00042F00102226413F0040F04D019B1226CBB
:1049000042F00202226413F0020F04D019B1226CAB
:1049100042F00402226413F0080F07D010F0200FB9
:1049200000D119B1226C42F008022264226C002AE4
:10493000D5D013F0200F02D010F0200F29D123681A
:104940005B6903F04003226C12F0080F00D163B3DF
:104950002046FFF7FAFD23685B6913F0400F20D073
:10496000226802F1140353E8003F23F0400314329D
:1049700042E800310029F3D1A36B73B1604A1A6594
:10498000A06BFDF78FFC0028A9D0A06B036D9847A2
:10499000A5E72046FFF707FFD1E72046FFF7F9FE1E
:1049A0009DE72046FFF7F5FE99E72046FFF7F1FE69
:1049B0000023236493E713F0100F82D010F0100F40
:1049C0003FF47FAF00230193136801935368019371
:1049D000019B536913F0400F50D0A26B13685B68C2
:1049E0009BB2002B3FF47BAFA18D99427FF677AF4E
:1049F000E385D369B3F5807F37D0226802F10C03D9
:104A000053E8003F23F480730C3242E80031002960
:104A1000F3D1226802F1140353E8003F23F00103AD
:104A2000143242E800310029F3D1226802F1140364
:104A300053E8003F23F04003143242E800310029DC
:104A4000F3D1202384F83E3000232363226802F14F
:104A50000C0353E8003F23F010030C3242E800310E
:104A60000029F3D1A06BFDF7D3FBA18DE38D9BB2A1
:104A7000C91A89B22046FFF795FE30E7A18DE38D74
:104A80009BB2C91A89B2E38D9BB2002B3FF427AFCA
:104A900000293FF424AF226802F10C0353E8003FE1
:104AA00023F490730C3242E800300028F3D12268DE
:104AB00002F1140353E8003F23F00103143242E8EB
:104AC00000300028F3D1202384F83E3000232363F4
:104AD000226802F10C0353E8003F23F010030C326C
:104AE00042E800300028F3D12046FFF75BFEF6E6EF
:104AF0002046FFF758FDF2E62046FFF73DFEEEE6C2
:104B00009547000881628285C285002303642222C2
:104B100080F83E2080F83C30036923B10268D368F6
:104B200043F48073D3600268536943F00103536117
:104B30000268D36843F02003D3600020704708B5B3
:104B400090F83E30DBB2202B0DD171B17AB190F8E4
:104B50003C30012B0DD0012380F83C30002303634F
:104B6000FFF7D0FF00E0022008BD0120FCE7012094
:104B7000FAE70220F8E70000DFF834D00D480E49CC
:104B80000E4A002302E0D458C4500433C4188C42A7
:104B9000F9D30B4A0B4C002301E013600432A2420C
:104BA000FBD3FDF701F800F039F8FCF7A5FC7047DE
:104BB00000000220000000205C0000207458000863
:104BC0005C000020000A0020FEE700000EB400B5E3
:104BD0009CB01DAB029006906FF000410948079110
:104BE0000491094953F8042B05910068019302A927
:104BF00000F08EF9029B00221A701CB05DF804EBE5
:104C000003B070470C0000200802FFFF0244034677
:104C1000934200D1704703F8011BF9E770B50D4DC1
:104C20000D4C641BA4100026A64209D10B4D0C4C60
:104C300000F0DEFD641BA4100026A64205D170BD65
:104C400055F8043B98470136EEE755F8043B984782
:104C50000136F2E76C5800086C5800086C580008E0
:104C6000705800087047704738B50546002941D094
:104C700051F8043C0C1F002BB8BFE41800F0E0F81A
:104C80001D4A136833B9636014602846BDE8384094
:104C900000F0DCB8A34208D9206821188B4201BF7C
:104CA00019685B6809182160EDE71A465B680BB16B
:104CB000A342FAD911685018A0420BD120680144D0
:104CC000501883421160E0D118685B685360084453
:104CD0001060DAE702D90C232B60D6E72068211890
:104CE0008B4204BF19685B68636004BF09182160C8
:104CF0005460CAE738BD00BFF809002070B50F4EF8
:104D00000C463168054611B900F0B2FB306021460F
:104D1000284600F0ADFB431C03D14FF0FF34204682
:104D200070BDC41C24F00304A042F8D0211A284608
:104D300000F09EFB0130F2D1EFE700BFF409002044
:104D40002DE9F843CD1C25F0030508350C2D38BF9F
:104D50000C25002D064601DBA94204D90C23336043
:104D60000020BDE8F883DFF8D48000F069F8D8F8B7
:104D700000301C4644BB29463046FFF7BFFF431CAA
:104D8000044658D1D8F800402746002F43D1002CC4
:104D90004BD023683946304604EB030900F068FB2A
:104DA000814542D121686D1A29463046FFF7A6FF9A
:104DB00001303AD023682B442360D8F800305A6879
:104DC00062BBC8F800700FE02268521B20D40B2A87
:104DD00017D96119A342256018BF5960636808BFDD
:104DE000C8F8001062514B60304600F02FF804F113
:104DF0000B00231D20F00700C21A1CBF1B1AA35072
:104E0000AFE76268A3420CBFC8F800205A60EBE726
:104E100023466468AEE73C467F68B6E71A465B689F
:104E2000A342FBD100235360DEE70C2333603046FE
:104E300000F00CF894E70560D6E700BFF809002001
:104E40000148FFF70FBF00BFF00900200148FFF73E
:104E50000ABF00BFF00900202DE9F0478E681F4609
:104E6000BE420B6882460C4690462DD8B1F90C2004
:104E700012F4906F26D06569096905EB4505A3EB2F
:104E8000010905EBD5757B1C4B446D109D4238BF65
:104E90001D46530527D52946FFF752FF064660B346
:104EA00021694A4600F0F4FAA38923F4906343F0A1
:104EB0008003A381266165614E44A5EB0905266048
:104EC000A5603E46BE4200D93E4620683246414675
:104ED00000F0B4FAA3689B1BA360236833442360EB
:104EE0000020BDE8F0872A4600F0E0FA06460028D8
:104EF000E0D121695046FFF7B7FE0C23CAF8003015
:104F0000A38943F04003A3814FF0FF30E9E700009D
:104F10002DE9F04F98468B891B069DB007460D463C
:104F2000144610D50B6973B94021FFF709FF2860BB
:104F3000286130B90C233B604FF0FF301DB0BDE855
:104F4000F08F40236B610023099320238DF82930D3
:104F5000CDF80C803023DFF89C818DF82A304FF09B
:104F6000010923469A4613F8012B0AB1252AF9D1E3
:104F7000BAEB040B0BD05B46224629463846FFF7B6
:104F80006BFF013000F0A780099A5A4409929AF801
:104F90000030002B00F09F8000234FF0FF32CDE95E
:104FA00005230AF1010A049307938DF853301A93ED
:104FB0005446052214F8011B4E48FBF7E9F8049A01
:104FC000D8B9D00644BF20238DF85330110744BF11
:104FD0002B238DF853309AF800302A2B15D0079ADE
:104FE000544600204FF00A0C214611F8013B303B9B
:104FF000092B4BD9B0B1079214E0A0EB080309FAD2
:1050000003F313430493A246D2E7039B191D1B68C5
:105010000391002BBBBF5B4242F002020793079350
:10502000B8BF049223782E2B0AD163782A2B32D171
:10503000039B1A1D1B68039243EAE3730234059332
:10504000DFF8C0A0217803225046FBF7A1F838B161
:10505000049BA0EB0A0040228240134301340493D6
:1050600014F8011B24488DF828100622FBF790F84D
:10507000002836D0214B1BBB039B073323F00703CB
:1050800008330393099B334409936AE70CFB02320C
:105090000C460120A8E700230134059319464FF080
:1050A0000A0C204610F8012B303A092A03D9002BAC
:1050B000C6D00591C4E70CFB012104460123F0E7AB
:1050C00003AB00932A460E4B04A93846AFF3008089
:1050D000421C0646D6D1AB895B063FF52DAF099839
:1050E0002CE703AB00932A46054B04A9384600F091
:1050F00079F8EDE7305800083A5800080000000041
:10510000594E0008365800082DE9F04716469846D3
:105110008A680B69DDF820909342B8BF134633606C
:1051200091F8432007460C460AB1013333602368E7
:10513000990642BF336802333360256815F00605CF
:1051400006D104F1190AE36832689B1AAB4226DCE7
:1051500094F843302268003B18BF012392062BD4F9
:1051600004F1430241463846C84701301ED0236847
:10517000226903F00603042B02BFE5683368ED1AC9
:10518000A3680CBF25EAE57500259342C4BF9B1AAE
:10519000ED1800261A34B5421AD1002008E0012388
:1051A000524641463846C847013003D14FF0FF30E0
:1051B000BDE8F0870135C6E7E1185A1C302081F8B8
:1051C0004300224494F8451082F843100233C7E7A5
:1051D0000123224641463846C8470130E6D0013611
:1051E000D9E700002DE9FF470F7E0C9E782F9146EE
:1051F00080460C469A4601F1430207D8622F0AD82E
:10520000002F00F0DD80582F00F0C38004F142062B
:1052100084F842703AE0A7F16303152BF6D801A198
:1052200051F823F07D520008915200080D520008F9
:105230000D5200080D5200080D520008915200084E
:105240000D5200080D5200080D5200080D520008C2
:10525000A75300081F5300085F5300080D520008B1
:105260000D520008C95300080D5200081F530008D2
:105270000D5200080D5200086753000833681A1DCC
:105280001B68326004F1420684F842300123A8E032
:1052900031682368081D30601E0601D50D6803E0E3
:1052A0005D06FBD5B1F900506168002D78DA2D203C
:1052B000002984F84300A1602DDA5E486D420A237C
:1052C0001646B5FBF3F103FB1157C75D06F8017DE8
:1052D0002F46BB420D46F4D9082B0BD12368DF07BC
:1052E00008D5236961689942DEBF302306F8013C86
:1052F00006F1FF36921B2261CDF800A04B4603AAAF
:1053000021464046FFF700FF01306FD14FF0FF30DC
:1053100004B0BDE8F08723F004032360CDE72168E3
:105320003368080653F8045B02D4490648BFADB29F
:105330006F2F4048336014BF0A230823002184F8EC
:1053400043106668A660002EBADB216821F00401D4
:105350002160002DB4D1002EB2D11646BCE72368DF
:1053600043F0200323603448782784F8457023688D
:1053700031681F0651F8045B02D45F0648BFADB226
:105380003160D90744BF43F0200323601DB11023CF
:10539000D4E72848E9E7236823F020032360F6E7F1
:1053A00024480A23CDE7336825686169181D3060F9
:1053B0002E061B6801D5196002E06806FBD519802E
:1053C00000232361164697E733681A1D32601E6872
:1053D000626800213046FAF7DBFE08B1801B60608E
:1053E00063682361002384F8433085E723693246EC
:1053F00049464046D047013088D023689B0714D4E3
:10540000E068039B9842B8BF184681E70123324603
:1054100049464046D04701303FF478AF0135E36854
:1054200003995B1AAB42F1DCEAE7002504F11906A7
:10543000F5E700BF4158000852580008884210B5EF
:1054400001EB020402D98442234607D8431EA1423D
:1054500008D011F8012B03F8012FF8E702440146A8
:105460008A4200D110BD13F8014D02F8014DF7E753
:1054700038B5064D0023044608462B6000F04CF872
:10548000431C02D12B6803B1236038BDEC09002016
:105490000A44914200F1FF3300D1704710B511F872
:1054A000014B03F8014F9142F9D110BD2DE9F041B4
:1054B000804615460C4621B9BDE8F0411146FFF77C
:1054C0003FBC2AB9FFF7D0FB00242046BDE8F0819D
:1054D00000F01AF88542064602D8B5EB500FF4D812
:1054E00029464046FFF72CFC07460028ECD0B54281
:1054F0002A46214628BF3246FFF7CAFF21464046CA
:10550000FFF7B2FB3C46E0E751F8043C181F002BC4
:10551000BCBF0B58C0187047044A05491368002BDC
:1055200008BF0B461844106018467047FC0900205D
:10553000000A00202DE9F047089D0C46002B4ED1B3
:1055400094468C458646B2FA82F262D94AB1C2F1DB
:105550002003914020FA03F30CFA02FC194300FAED
:1055600002FE4FEA1C471FFA8CF6B1FBF7F44FEA34
:105570001E4307FB141143EA014304FB06F1994261
:105580000AD91CEB030304F1FF3080F01281994229
:1055900040F20F81023C6344591A1FFA8EF3B1FBAB
:1055A000F7F007FB101143EA014300FB06F69E42A9
:1055B0000AD91CEB030300F1FF3180F0FC809E420E
:1055C00040F2F980634402389B1B40EA044000210A
:1055D0001DB1D3400022C5E90032BDE8F0878B42FF
:1055E00005D90DB1C5E9000100210846F5E7B3FA78
:1055F00083F1002946D1A34202D39042C0F0F0804B
:10560000861A64EB03030120002DE6D0C5E9006390
:10561000E3E7002A40F09080A1EB0C044FEA1C481D
:105620001FFA8CF70121B4FBF8F64FEA1E4308FB82
:10563000164443EA044307FB06F0984208D91CEBE2
:10564000030306F1FF3402D2984200F2CD802646D1
:105650001C1A1FFA8EF3B4FBF8F008FB104443EA5F
:10566000044300FB07F79F4208D91CEB030300F13A
:10567000FF3402D29F4200F2B0802046DB1B40EA9A
:105680000640A5E7C1F120068B4022FA06F71F432A
:1056900020FA06FC04FA01F343EA0C03F44000FA92
:1056A00001F8380C4FEA1349B4FBF0FE1FFA87FCEF
:1056B00000FB1E4449EA04440EFB0CF9A14502FA22
:1056C00001F20AD93C190EF1FF3A80F08480A1451D
:1056D00040F28180AEF1020E3C44A4EB09041FFAB3
:1056E00083F9B4FBF0F300FB134449EA044403FBE1
:1056F0000CFCA44507D93C1903F1FF3067D2A4453F
:1057000065D9023B3C4443EA0E40A0FB0293A4EB64
:105710000C049C42CE469C4651D34ED055B1B8EBBA
:105720000E0364EB0C0404FA06F6CB401E43CC4097
:10573000C5E90064002150E7C2F1200320FA03F11B
:105740000CFA02FC24FA03F394400C434FEA1C4881
:1057500000FA02FE1FFA8CF7B3FBF8F008FB1031D9
:10576000230C43EA014300FB07F1994208D91CEBE3
:10577000030300F1FF362CD299422AD90238634440
:105780005B1AA4B2B3FBF8F108FB113344EA0344FB
:1057900001FB07F3A34208D91CEB040401F1FF3617
:1057A00013D2A34211D902396444E41A41EA0041F8
:1057B00039E70446F0E6084606E7C845AED2B9EB3D
:1057C000020E63EB070C0138A8E73146EDE703460C
:1057D00099E73046D4E7D6467FE7634402384DE781
:1057E0000646234608460FE7023E634430E700BF03
:1057F000F8B500BFF8BC08BC9E467047F8B500BFBE
:08580000F8BC08BC9E4670478D
:1058080025642E2564000000000000000102030446
:105818000000000000000000010203040607080958
:105828000006101600061016232D302B2000686C79
:105838004C006566674546470030313233343536AB
:1058480037383941424344454600303132333435E4
:0C58580036373839616263646566000011
:085864002CA9FF7F01000000E8
:04586C0089020008A5
:0458700065020008C5
:105874000024F400010000001000000010000020CB
:1058840000000000B40800201C0900208409002046
:105894000000000000000000000000000000000004
:1058A40000000000000000000000000000000000F4
:1058B40000000000000000000000000000000000E4
:0C58C400000000000000000000000000D8
:0400000508004B792B
:00000001FF
