:020000040800F2
:10000000000002203D6B0008E12A0008E32A0008F6
:10001000E52A0008E72A0008E92A00080000000095
:10002000000000000000000000000000EB2A0008B3
:10003000ED2A000800000000EF2A0008F12A00085D
:100040008D6B00088D6B00088D6B00088D6B0008B0
:100050008D6B00088D6B00088D6B00088D6B0008A0
:100060008D6B00088D6B00088D6B00088D6B000890
:10007000F92A0008092B00088D6B00088D6B000819
:100080008D6B00088D6B00088D6B00088D6B000870
:100090008D6B00088D6B00088D6B00088D6B000860
:1000A0008D6B00088D6B00088D6B0008192B000804
:1000B000292B00088D6B0008392B00088D6B000878
:1000C0008D6B00088D6B00088D6B00088D6B000830
:1000D0008D6B00088D6B00088D6B00088D6B000820
:1000E000492B00088D6B00088D6B00088D6B000894
:1000F0008D6B0008552B00088D6B00088D6B000878
:100100008D6B00088D6B0008652B00088D6B000857
:10011000752B00088D6B0008852B0008952B0008B7
:10012000A52B00088D6B00088D6B00088D6B0008F7
:100130008D6B00088D6B00088D6B00088D6B0008BF
:100140008D6B00088D6B00088D6B00088D6B0008AF
:100150008D6B00088D6B00088D6B00088D6B00089F
:100160008D6B00088D6B00088D6B00088D6B00088F
:100170008D6B00088D6B00088D6B0008000000007F
:080180008D6B00088D6B000877
:1001900001F0FF01102A2BDB10F0070F08D010F838
:1001A000013B013A8B422DD010F0070F42B3F6D13C
:1001B000F0B441EA012141EA014122F007047FF055
:1001C00000070023F0E80256083C85EA010586EAAC
:1001D000010685FA47F5A3FA87F586FA47F6A5FAE8
:1001E00087F68EB9EED1F0BC01F0FF0102F00702F4
:1001F00032B110F8013B013A83EA010313B1F8D19F
:100200000020704701387047002D06BF354603387F
:10021000073815F0010F07D1013015F4807F02BFB8
:10022000013015F4C03F0130F0BC0138704700BF09
:1002300053B94AB9002908BF00281CBF4FF0FF314D
:100240004FF0FF3000F00CB8ADF1080C6DE904CEB2
:1002500007F052F9DDF804E0DDE9022304B070474D
:10026000704700BF10B5054C237833B9044B13B168
:100270000448AFF300800123237010BD6400002008
:1002800000000000B477000808B5034B1BB1034918
:100290000348AFF3008008BD0000000068000020A4
:1002A000B477000810B5074C074A0E21204604F029
:1002B000A9FF204604F07EFE044B48221A70492212
:1002C0005A7010BD38050020AD0B000884000020D6
:1002D00008B502460249034806F05AFC08BD00BFB3
:1002E000CC7700088400002008B5FDEEC07AB8EE97
:1002F000E77A30EE470A9FED097A20EE070ABDEE55
:10030000C07A17EE103A002B06DB17EE902A04494C
:10031000044806F03DFC08BD5B42F6E70000C84219
:10032000D07700088400002070B50446BF4B00223F
:100330005A610D46002950D0012D5FD0022D6ED09C
:10034000A4F12D00452800F2A380DFE810F0790029
:10035000A100A100A200CB00F4001D014601710123
:100360009A01C301EC011502A100A100A100A100A6
:10037000A100A100A1003E0267029002B902E202C0
:100380000B03370360038903A100A100A100A100B2
:10039000A100A100A100A100A1000404A100DB03B1
:1003A000A100A100A100A100A100A100A100A10045
:1003B000A100A100A100A100A100A100A100A10035
:1003C000A100A100A100A100A100A100A100A10025
:1003D000A100A100A100A100B2031E460122042138
:1003E000184603F0AAFB00220821304603F0A5FBC3
:1003F00000228021304603F0A0FB9DE78B4E0022B7
:100400000421304603F099FB01220821304603F015
:1004100094FB00228021304603F08FFB8EE7834D52
:1004200000220421284603F088FB002208212846E8
:1004300003F083FB01228021284603F07EFB7FE747
:100440007A4C00221021204603F077FB0022402145
:10045000204603F072FB00224FF40071204603F0A7
:100460006CFB00224FF40061204603F066FB002283
:100470004FF48051204603F060FB002220212046EB
:1004800003F05BFB01224FF48071204603F055FB23
:1004900070BD664C01221021204603F04EFB012264
:1004A0004021204603F049FB01224FF40071204611
:1004B00003F043FB01224FF40061204603F03DFBB3
:1004C00001224FF48051204603F037FB0122202106
:1004D000204603F032FB00224FF48071204603F0E7
:1004E0002CFBD5E7514C00221021204603F025FBC0
:1004F00001224021204603F020FB01224FF400712D
:10050000204603F01AFB00224FF40061204603F05E
:1005100014FB00224FF48051204603F00EFB002212
:100520002021204603F009FB00224FF48071204671
:1005300003F003FBACE73D4C01221021204603F001
:10054000FCFA01224021204603F0F7FA00224FF482
:100550000071204603F0F1FA01224FF400612046B9
:1005600003F0EBFA01224FF48051204603F0E5FA44
:1005700000222021204603F0E0FA01224FF480718E
:10058000204603F0DAFA83E7284C012210212046A6
:1005900003F0D3FA01224021204603F0CEFA0122D3
:1005A0004FF40071204603F0C8FA01224FF40061B5
:1005B000204603F0C2FA00224FF48051204603F097
:1005C000BCFA00222021204603F0B7FA01224FF4A2
:1005D0008071204603F0B1FA5AE7144C0022102132
:1005E000204603F0AAFA01224021204603F0A5FA92
:1005F00001224FF40071204603F09FFA00224FF4CD
:100600000061204603F099FA00224FF48051204601
:1006100003F093FA01222021204603F08EFA0122F2
:100620004FF48071204603F088FA31E70018024049
:10063000E14C01221021204603F07FFA00224021E4
:10064000204603F07AFA01224FF40071204603F0AD
:1006500074FA01224FF40061204603F06EFA002282
:100660004FF48051204603F068FA012220212046F1
:1006700003F063FA01224FF48071204603F05DFA23
:1006800006E7CD4C01221021204603F056FA002245
:100690004021204603F051FA01224FF40071204618
:1006A00003F04BFA01224FF40061204603F045FAB3
:1006B00001224FF48051204603F03FFA012220210D
:1006C000204603F03AFA01224FF48071204603F0ED
:1006D00034FADDE6B84C01221021204603F02DFA51
:1006E00001224021204603F028FA01224FF4007134
:1006F000204603F022FA00224FF40061204603F066
:100700001CFA00224FF48051204603F016FA002212
:100710002021204603F011FA00224FF48071204678
:1007200003F00BFAB4E6A44C01221021204603F09A
:1007300004FA01224021204603F0FFF901224FF480
:100740000071204603F0F9F901224FF400612046C0
:1007500003F0F3F901224FF48051204603F0EDF944
:1007600001222021204603F0E8F901224FF4807194
:10077000204603F0E2F98BE68F4C0122102120463F
:1007800003F0DBF901224021204603F0D6F90122D3
:100790004FF40071204603F0D0F900224FF40061BD
:1007A000204603F0CAF900224FF48051204603F09E
:1007B000C4F901222021204603F0BFF901224FF4A1
:1007C0008071204603F0B9F962E67B4C01221021CA
:1007D000204603F0B2F901224021204603F0ADF992
:1007E00001224FF40071204603F0A7F900224FF4D4
:1007F0000061204603F0A1F901224FF48051204608
:1008000003F09BF901222021204603F096F90122F2
:100810004FF48071204603F090F939E6664C0022CF
:100820001021204603F089F900224021204603F0E0
:1008300084F901224FF40071204603F07EF9012271
:100840004FF40061204603F078F901224FF4805103
:10085000204603F072F901222021204603F06DF9B1
:1008600001224FF48071204603F067F910E6524CE4
:1008700001221021204603F060F900224021204689
:1008800003F05BF900224FF40071204603F055F9A4
:1008900001224FF40061204603F04FF901224FF48A
:1008A0008051204603F049F900222021204603F020
:1008B00044F901224FF48071204603F03EF9E7E548
:1008C0003D4C00221021204603F037F9012240213F
:1008D000204603F032F901224FF40071204603F064
:1008E0002CF901224FF40061204603F026F9012281
:1008F0004FF48051204603F020F9002220212046A9
:1009000003F01BF901224FF48071204603F015F922
:10091000BEE5294C01221021204603F00EF90022E9
:100920004021204603F009F900224FF400712046CF
:1009300003F003F901224FF40061204603F0FDF8B3
:1009400001224FF48051204603F0F7F801222021C4
:10095000204603F0F2F801224FF48071204603F0A4
:10096000ECF895E5144C01221021204603F0E5F83F
:1009700000224021204603F0E0F800224FF40071ED
:10098000204603F0DAF800224FF40061204603F01D
:10099000D4F801224FF48051204603F0CEF8012212
:1009A0002021204603F0C9F801224FF4807120462F
:1009B00003F0C3F86CE500BF001802407A4C012236
:1009C0001021204603F0B9F800224021204603F010
:1009D000B4F801224FF40071204603F0AEF8012272
:1009E0004FF40061204603F0A8F801224FF4805133
:1009F000204603F0A2F801222021204603F09DF8B2
:100A000000224FF48071204603F097F840E5664CD1
:100A100000221021204603F090F8012240212046B8
:100A200003F08BF801224FF40071204603F085F8A3
:100A300000224FF40061204603F07FF801224FF4BA
:100A40008051204603F079F801222021204603F04E
:100A500074F801224FF48071204603F06EF817E518
:100A6000514C00221021204603F067F8002240215B
:100A7000204603F062F800224FF40071204603F094
:100A80005CF800224FF40061204603F056F8012282
:100A90004FF48051204603F050F8012220212046D7
:100AA00003F04BF800224FF48071204603F045F824
:100AB000EEE43D4C00221021204603F03EF80022D7
:100AC0004021204603F039F800224FF400712046FF
:100AD00003F033F800224FF40061204603F02DF8B4
:100AE00001224FF48051204603F027F800222021F4
:100AF000204603F022F801224FF48071204603F0D3
:100B00001CF8C5E4284C00221021204603F015F8FB
:100B100001224021204603F010F801224FF4007119
:100B2000204603F00AF801224FF40061204603F04A
:100B300004F801224FF48051204602F0FEFF01220A
:100B40002021204602F0F9FF00224FF48071204658
:100B500002F0F3FF9CE4144C01221021204602F025
:100B6000ECFF00224021204602F0E7FF01224FF473
:100B70000071204602F0E1FF01224FF4006120469F
:100B800002F0DBFF00224FF48051204602F0D5FF37
:100B900001222021204602F0D0FF01224FF4807173
:100BA000204602F0CAFF73E40018024038B5144C26
:100BB0002378144D144A1178591AE85CFFF7B4FBF6
:100BC00023780133DBB22370EB5C2E2B07D00C4B68
:100BD0001A780D4B1B7803339A420AD038BD012294
:100BE0004FF48061094802F0A8FF074B01221A70F8
:100BF000EDE70023024A1370034A1370EEE700BFCB
:100C00009400002084000020800000200018024092
:100C100000B587B0130A8DF814308DF815200A231B
:100C200002930223019305AB009301230A4600FAC5
:100C300003F1034803F0C0FA07B05DF804FB00BFFE
:100C4000780A002000B587B00A4640000A230293C4
:100C50000223019305AB00930123C118054803F05B
:100C60005DFB9DF814009DF8153043EA002007B0A5
:100C70005DF804FB780A002008B50A460521FFF755
:100C8000C7FF08BD00B27047C00880007047000071
:100C900008B50421FFF7D6FF014B188008BD00BF3F
:100CA0009C00002008B5FFF7F3FFFFF7EBFF4FF4C0
:100CB0007A7303FB00F0054B83FB00230344C0174A
:100CC000C0EBE330024B188000B208BD0180008009
:100CD0009E00002008B50221FFF7B4FFFFF7D4FF04
:100CE000014B188008BD00BFA000002008B54420BB
:100CF000FFF7F0FF064B18804120FFF7EBFF054B95
:100D000018804020FFF7E6FF034B188008BD00BFA6
:100D10000403002000030020FC02002008B544204A
:100D2000FFF7C0FF064B58804120FFF7BBFF054B84
:100D300058804020FFF7B6FF034B588008BD00BF26
:100D40000403002000030020FC02002008B50C4B27
:100D50001B6853B10A4B1B68012B09D0084A136862
:100D600001331360022B06D008BDFFF7BFFFF1E788
:100D7000FFF7D4FFF2E7134600221A60F4E700BF42
:100D80009800002010B504464FF400420021FFF700
:100D90003FFF4FF6FF712046FFF76EFF10BD0000CA
:100DA00010B54420FFF7EEFF4120FFF7EBFF402096
:100DB000FFF7E8FF044C054A0E21204604F022FA12
:100DC000204604F0F7F810BD840400204D0D000803
:100DD00000B587B00A4640004FF0FF33029302236C
:100DE000019305AB00930123C118064803F096FA5E
:100DF0009DF814009DF8153043EA002007B05DF817
:100E000004FB00BF780A002010B52DED028B3B21BA
:100E10006920FFF7DDFFFFF735FF00EB80004000A2
:100E200007EE900AF8EEE77A9FED2C8A67EE887A53
:100E30002B4CC4ED007A3D216920FFF7C9FFFFF775
:100E400021FF00EB8000400007EE900AF8EEE77A01
:100E500067EE887AC4ED017A3F216920FFF7B8FF79
:100E6000FFF710FF00EB8000400007EE900AF8EE5D
:100E7000E77A67EE887AC4ED027A43216920FFF7AA
:100E8000A7FFFFF7FFFE07EE900AF8EEE77A9FED67
:100E9000158A87EE887A144C84ED007A4521692002
:100EA000FFF796FFFFF7EEFE07EE900AF8EEE77AFF
:100EB00087EE887A84ED017A47216920FFF788FF61
:100EC000FFF7E0FE07EE900AF8EEE77A87EE887A01
:100ED00084ED027ABDEC028B10BD00BF00008038AB
:100EE000140300200000034308030020F0B585B080
:100EF0001A4C1B4A0E21204604F084F9204604F0C7
:100F000059F8184D4FF47A7602960124019400277F
:100F1000009723466B22D221284603F04DF9029612
:100F200001940723009323461922D221284603F077
:100F300043F902960194009723461C22D2212846A9
:100F400003F03AF902960194009723461B22D2211E
:100F5000284603F031F905B0F0BD00BFEC050020D4
:100F6000090E0008780A002008B5154B154A1A60CA
:100F7000002017E0124A12682021116010490A6807
:100F800004320A60013B002B0BDB0F4A52F8202091
:100F9000DA4012F0010FEDD0094A126844211160C5
:100FA000ECE70130032801DC1723ECE7054A0023B6
:100FB000C2F8803161230821044804F0CBFD08BD4C
:100FC000A4000020A80000202C020020BC08002063
:100FD00038B5C0EB00104000124C84FB00C505443E
:100FE000C017C0EBE510104D05EB830C8CF8010029
:100FF000C1EB0111490084FB01E00844C917C1EBB2
:10100000E0118CF80210C2EB0212520084FB0214B1
:101010001444D217C2EBE41205F82320FFF7A4FF13
:1010200038BD00BF818080802C02002008B50821D7
:10103000014804F0DBFE08BDBC08002038B5254D92
:101040002B88C3EB0323244C84FB032C9C44D8172C
:1010500000231A461946C0EBEC20FFF7B9FF6B8856
:10106000C3EB032384FB03201844D9170123002278
:10107000C1EBE0211046FFF7ABFFAB88C3EB0323C6
:1010800084FB03211944DA170223C2EBE122002179
:101090000846FFF79DFF2888C0EB00206B88C3EB54
:1010A0000323A988C1EB012184FB012C8C44CA17BE
:1010B00084FB03151D44D91784FB00340444C01776
:1010C0000323C2EBEC22C1EBE521C0EBE420FFF7E8
:1010D0007FFF38BD480300208100088008B5084B19
:1010E000B3F90020074B33F81230642202FB03F3FC
:1010F000054880FB03201844C012FFF7E9F808BD3B
:101100003C020020480300208100088008B5FFF75A
:1011100095FFFFF7E3FF08BD38B5044604221949DF
:10112000194801F069FE012C04D0022C0FD0032CC9
:101130001AD038BD154D284603F080FF144A0E2101
:10114000284604F05FF8284603F034FFEDE70F4D22
:10115000284603F073FF0F4A0E21284604F052F888
:10116000284603F027FFE2E7084C204603F066FF1D
:10117000094A0E21204604F045F8204603F01AFFE4
:10118000D7E700BF480300202C0B0020A00600205A
:101190003D100008DD1000080D11000838B50446A8
:1011A0000D46012802D0022C0FD038BD39B1012DD7
:1011B000F9D1012204210C4802F0BFFCF3E7002220
:1011C0000421094802F0B9FCF1E73DB1012DECD151
:1011D00001220821044802F0B0FCE6E700220821C1
:1011E000014802F0AAFCF1E7000C02404FF47A73C8
:1011F00000FB03F3074A126893FBF2F3064A1068F8
:101200000344984204DC00F57A70984200DB1846EB
:10121000704700BF0000002040020020322900D0AB
:10122000704710B5044612490A6003EB83035B0064
:10123000104A1360012806D0022C09D0032C0CD0D0
:10124000042C0FD010BD00210B4804F001FCF3E783
:101250000421094804F0FCFBF0E70821064804F0EB
:10126000F7FBEDE70C21044804F0F2FBEAE700BFCE
:1012700000000020400200200808002038B5044685
:101280000D46012806D0022C0AD0032C0ED0042CC7
:1012900012D038BD0846FFF7A9FF0A4B5863F2E7A2
:1012A0002846FFF7A3FF074B9863EEE72846FFF7B2
:1012B0009DFF044BD863EAE72846FFF797FF014BF1
:1012C0001864E6E70004004010B54E4B00225A6156
:1012D0004D4B1B78072B12D8DFE803F0041E252C9A
:1012E000333A4148474C01224FF48051204602F0E6
:1012F00024FC00224FF40041204602F01EFC434B28
:10130000B3F90030012B38D03F4A13780133DBB2F8
:101310001370082B71D010BD01224FF48041394861
:1013200002F00BFCEBE700224FF48051354802F04D
:1013300004FCE4E701224FF40051324802F0FDFBC7
:10134000DDE700224FF480412E4802F0F6FBD6E79D
:1013500001224FF400412B4802F0EFFBCFE70022BF
:101360004FF40051274802F0E8FBC8E701224FF490
:101370008051244802F0E1FBC1E7234B1B78072B87
:10138000C2D8DFE803F00410161C22282E34204CAB
:1013900001221146204602F0D0FB002208212046FF
:1013A00002F0CBFBB0E701220221194802F0C5FB95
:1013B000AAE700220121164802F0BFFBA4E70122A0
:1013C0000421134802F0B9FB9EE7002202211048D5
:1013D00002F0B3FB98E7012208210D4802F0ADFBB3
:1013E00092E7002204210A4802F0A7FB8CE70122C1
:1013F0001146074802F0A1FB86E7134600221A7047
:1014000089E700BF000C0240470200204402002090
:101410000004024010B5454B00225A61444B1B7832
:10142000032B10D8DFE803F0021C2A383F4C0022BF
:101430004FF40041204602F080FB01224FF480511E
:10144000204602F07AFB3B4BB3F90030012B31D040
:10145000374A13780133DBB21370042B62D010BD0E
:10146000324C00224FF48051204602F066FB0122EC
:101470004FF48041204602F060FBE4E72B4C002251
:101480004FF48041204602F058FB01224FF40051F6
:10149000204602F052FBD6E7244C00224FF40051C4
:1014A000204602F04AFB01224FF40041204602F0A0
:1014B00044FBC8E71E4B1B78032BC9D8DFE803F0B9
:1014C000020E1A261C4C00220821204602F035FB91
:1014D00001221146204602F030FBB9E7164C0022EB
:1014E0000121204602F029FB01220221204602F0C0
:1014F00024FBADE7104C00220221204602F01DFB28
:1015000001220421204602F018FBA1E70A4C002228
:101510000421204602F011FB01220821204602F09E
:101520000CFB95E7134600221A7098E7000C024066
:1015300047020020440200200004024010B55C4B2A
:1015400000225A615B4B1B78032B16D8DFE803F0AF
:101550000223374B564C00224FF40041204602F044
:10156000ECFA01224FF48051204602F0E6FA012203
:101570004FF48041204602F0E0FA4F4BB3F90030BF
:10158000012B44D04B4A13780133DBB21370042B88
:1015900000F0898010BD464C00224FF48051204657
:1015A00002F0CBFA01224FF48041204602F0C5FA46
:1015B00001224FF40051204602F0BFFADDE73C4C17
:1015C00000224FF48041204602F0B7FA01224FF486
:1015D0000051204602F0B1FA01224FF400412046AA
:1015E00002F0ABFAC9E7324C00224FF4005120461A
:1015F00002F0A3FA01224FF40041204602F09DFAC6
:1016000001224FF48051204602F097FAB5E7294BAA
:101610001B78032BB6D8DFE803F002132435274CE0
:1016200000220821204602F088FA012211462046B5
:1016300002F083FA01220221204602F07EFAA1E79D
:101640001E4C00220121204602F077FA01220221DD
:10165000204602F072FA01220421204602F06DFABF
:1016600090E7164C00220221204602F066FA012281
:101670000421204602F061FA01220821204602F0EE
:101680005CFA7FE70D4C00220421204602F055FA57
:1016900001220821204602F050FA0122114620467C
:1016A00002F04BFA6EE7134600221A7072E700BF91
:1016B000000C0240470200204402002000040240C7
:1016C00010B50446B0B142F2CF03984201DD42F2B8
:1016D000D0040C4B1A680C4B93FBF2F30B4A1370BB
:1016E000DBB24FF47A7202FB03F393FBF4F3084A84
:1016F000D36210BD074803F0A1FC074B00225A61DA
:10170000E7E700BF0400002000BD010546020020FD
:101710000008004054070020000C024070B5044649
:101720001546194B1960194E304603F087FC0E21FF
:10173000304603F029FE15B9154B01221A80032CFF
:1017400007D0022C0ED0012C15D0104803F032FC2B
:1017500070BD104B00225A610F4A0E210B4803F056
:1017600051FDEEE70B4B00225A610C4A0E2107484F
:1017700003F048FDE7E7074B00225A61084A0E21B3
:10178000024803F03FFDE0E704000020540700207A
:101790004402002000040240C91200081514000889
:1017A0003D15000808B5044B984200D008BD0D2235
:1017B000024905F036F9F9E7004C004048020020E4
:1017C0002DE9F0418EB0002409940A940B940C94F6
:1017D0000D940194564B1A6B42F010021A631A6B67
:1017E00002F010020192019A02941A6B42F0040274
:1017F0001A631A6B02F004020292029A03941A6BA3
:1018000042F020021A631A6B02F020020392039A3C
:1018100004941A6B42F080021A631A6B02F0800281
:101820000492049A05941A6B42F001021A631A6B2F
:1018300002F001020592059A06941A6B42F0020228
:101840001A631A6B02F002020692069A07941A6B48
:1018500042F008021A631A6B02F008020792079A14
:1018600008941A6B42F040021A631B6B03F04003AA
:101870000893089B2F4F2246FF21384602F05DF95E
:10188000DFF8BC8022464FF20C01404602F055F9C9
:10189000294E224641F6FC71304602F04EF940F2E4
:1018A000BC7309930A940B9409A9244801F0AEFF74
:1018B000FF23099301250A950B940C9409A9384636
:1018C00001F0A4FF4FF20C0309930A950B94032730
:1018D0000C9709A9404601F099FF40F2FC43099397
:1018E0000A950B940C9409A9304601F08FFF4FF430
:1018F000D85309930A950B940C9709A9304601F027
:1019000085FF4FF4004309934FF404130A930B959A
:1019100009A9304601F07AFF22462146282001F02D
:10192000A7FC282001F0B4FC0EB0BDE8F08100BF98
:10193000003802400004024000180240001002403B
:10194000000C024010B582B000240094164B1A6BB4
:1019500042F400121A631A6B02F400120092009A09
:1019600001941A6B42F480021A631B6B03F4800328
:101970000193019B224621460C2001F079FC0C20AA
:1019800001F086FC224621460D2001F071FC0D205D
:1019900001F07EFC22462146382001F069FC382007
:1019A00001F076FC02B010BD0038024002784378A6
:1019B0009B0143EAC2135BB2827843EA42135BB2F3
:1019C000C27843EA02135BB2027943EAC2035BB214
:1019D000427943EA82035BB2827943EA42035BB213
:1019E00090F9072043EA0200C0B2704738B53E4D77
:1019F0008021284602F09AF8003818BF01203B4C9D
:101A0000E0714FF48071284602F090F8003818BF5A
:101A10000120A0714FF40071284602F087F80038C9
:101A200018BF012060714FF48061284602F07EF8F3
:101A3000003818BF012020710421284602F076F8F2
:101A4000B0FA80F04009E0700821284602F06EF8F4
:101A5000B0FA80F04009A0701021284602F066F824
:101A6000B0FA80F0400960702021284602F05EF84C
:101A7000B0FA80F0400920702046FFF797FF1C4D18
:101A800028701C4C0A2301221B49204604F0A2FDA9
:101A90000A2308221949204604F09CFD0A2301224A
:101AA0002946204604F096FD0A230C2214492046BC
:101AB00004F090FD0A230C221249204604F08AFD0E
:101AC0000A2304221049204604F084FD0A2304223C
:101AD0000E49204604F07EFD0A2304220C492046CC
:101AE00004F078FD38BD00BF001002404003002024
:101AF0003C030020B0030020D677000848030020F4
:101B00001403002008030020040300200003002029
:101B1000FC02002038B5534D2A78534C0121204651
:101B200002F00BF86A780221204602F006F8AA7843
:101B30000421204602F001F8EA780821204601F04D
:101B4000FCFF2A791021204601F0F7FF6A79202155
:101B5000204601F0F2FFAA794021204601F0EDFF76
:101B6000EA798021204601F0E8FF404C21780120ED
:101B7000FFF714FB61780220FFF710FB00240AE056
:101B80003B4904EB44028B18885C59789A78E3B29D
:101B9000FFF71EFA0134032CF2DD364A1378517830
:101BA00043EA0123917843EA0143D27843EA02638E
:101BB00007EE903AF8EEE77A2F4BC3ED007A9FEDEF
:101BC0002F7A87EE870A83ED000AFEF78DFB00244B
:101BD00000E00134032C2DDC294A04EB44014B00C6
:101BE000D118D25C4B7842EA0322264804EB440C1D
:101BF0004FEA4C0300EB030CC2528B78C87843EADF
:101C00000023ACF802300879497940EA0121ACF8A8
:101C10000410002ADDD0651C32212846FFF7FEFAA9
:101C200004EB44035A00174B134499882846FFF7E6
:101C300025FBCEE7144B1A78597841EA0221134B61
:101C40001980134B1A785B7843EA0223114C2380E6
:101C5000114B18780122FFF761FDB4F90000FFF77E
:101C60002FFD38BD34030020000402402C03002067
:101C700020030020F8020020F402002000007A4433
:101C8000DC020020C4020020C0020020BE020020AE
:101C9000BC020020BA020020C20200204E4B1B787A
:101CA000922B00D070474C4B5B78492BFAD110B582
:101CB000002305E09A1C4849895C484AD154013305
:101CC0002E2BF7D9072207E0444B1B78134103F072
:101CD000010343498B54013A002AF5DA072207E051
:101CE0003E4B5B78134103F001033E498B54013AAC
:101CF000002AF5DA394A91783B4B1970D17859703E
:101D0000117999705179D97091791971D179597185
:101D1000117A9971517AD971917A1972D17A59726D
:101D2000117B9972527BDA72002306E003F10E02F6
:101D30002A49895C2D4AD1540133032BF6DD002357
:101D400029E003F1090149000131244A12F801E0B8
:101D5000274C4FEA430C03EB43014800211804F8D9
:101D600000E003F10A0E4FEA4E0012F81E404C70DC
:101D70000CF11B0C12F80C408C7003F10E0412F8DD
:101D80001440CC700F30105C087103F1120012F88F
:101D900010204A710133032BD3DD104B93F82A2016
:101DA000144B1A700023012B07DC03F12B020B49A3
:101DB000895C114AD1540133F5E70023012B07DC7C
:101DC00003F12D020549895C0C4AD1540133F5E732
:101DD000FFF7A0FE10BD00BF8802002058020020BF
:101DE000340300202C03002020030020F8020020F0
:101DF000DC020020C2020020C0020020BC02002041
:101E000072B6FEE700B58FB000230A930B930C93D4
:101E10000D930893099301930293039304930593FD
:101E2000069307931E484FF0804202604360836030
:101E30006822C2600361836104F094F828BB4FF408
:101E400080530A930AA9164803F073FDF8B91448A1
:101E500004F0BEF8E8B900230893099308A91048D4
:101E600004F024F9B8B9602301930023029303938B
:101E70000593082201A90A4803F040FC68B9084804
:101E800000F0F6FC0FB05DF804FBFFF7B9FFFFF7B9
:101E9000B7FFFFF7B5FFFFF7B3FFFFF7B1FF00BFD5
:101EA000BC08002008B50A480A4B03600A4B43608F
:101EB00000238360C3604FF4804202614361836109
:101EC000C361036202F09AF800B908BDFFF798FFFA
:101ED000780A00200054004070460D0000B585B01F
:101EE000002300930193029303932548254A02603F
:101EF0004FF440324260836001220261027680F832
:101F00002030C36220498162C3600421C16180F82E
:101F10003020436100F044FF38BB002300930122CE
:101F2000019202936946164801F080F8F8B901233E
:101F30000093022301936946114801F077F8C0B974
:101F4000022300930323019369460D4801F06EF8C4
:101F500088B903230093042301936946084801F0DC
:101F600065F850B905B05DF804FBFFF749FFFFF7CE
:101F700047FFFFF745FFFFF743FFFFF741FF00BFB4
:101F80002C0B0020002001400100000F00B583B0A1
:101F90000023009301930E480E4A02600A22426019
:101FA000836042F20F72C260836103F0DBFF50B9BD
:101FB0000023009301936946054804F077F820B99F
:101FC00003B05DF804FBFFF71BFFFFF719FF00BF2D
:101FD000380500200014004000B583B000230093B2
:101FE00001930F480F4A026042F2CF0242608360C1
:101FF00040F2E733C3608023836103F0B3FF50B93D
:102000000023009301936946054804F04FF820B976
:1020100003B05DF804FBFFF7F3FEFFF7F1FE00BF2E
:10202000EC0500200010004008B50A480A4B036088
:102030000A4B436000238360C3604FF48042026117
:1020400043618361C361036201F0D8FF00B908BD39
:10205000FFF7D6FE240A002000580040A0860100A9
:1020600000B587B000230293039304930593009374
:1020700001931448144A026042F20F724260836076
:1020800042F2D002C26003618023836103F06AFFE1
:1020900090B94FF48053029302A90A4803F049FC17
:1020A00060B90023009301936946064803F0FEFFE0
:1020B00030B907B05DF804FBFFF7A2FEFFF7A0FE02
:1020C000FFF79EFE540700200008004000B58BB0CB
:1020D00000230693079308930993049305930093B1
:1020E0000193029303932A482A4A02604360836063
:1020F0004FF6FF72C26003614361836103F032FFF8
:10210000002834D14FF48053069306A9204803F0E9
:1021100010FC70BB1E4803F091FF60BB00230493CA
:10212000059304A91A4803F0C1FF30BB0A230093AA
:10213000012301930022029203926946144803F09E
:1021400089FBE0B904226946114803F083FBC0B95A
:10215000082269460E4803F07DFBA0B90C226946AF
:102160000B4803F077FB80B90BB05DF804FBFFF779
:1021700047FEFFF745FEFFF743FEFFF741FEFFF77F
:102180003FFEFFF73DFEFFF73BFEFFF739FE00BFC6
:10219000700900200000014000B58FB000230A93B1
:1021A0000B930C930D93089309930193029303935C
:1021B00004930593069307932C482D4A02605322FB
:1021C0004260836044F61F62C260036180238361C2
:1021D00003F0C8FE002839D14FF480530A930AA9AE
:1021E000224803F0A6FB002832D1204803F0F0FE7D
:1021F00000282FD100230893099308A91B4803F056
:1022000055FF48BB6023019300220292039205927E
:1022100001A9164803F072FA00BB04220DEB02017B
:10222000124803F06BFAD8B9082201A90F4803F04D
:1022300065FAB8B90C2201A90C4803F05FFA98B905
:102240000A4800F015FB0FB05DF804FBFFF7D8FD5E
:10225000FFF7D6FDFFF7D4FDFFF7D2FDFFF7D0FD66
:10226000FFF7CEFDFFF7CCFDFFF7CAFD0808002001
:102270000004004000B587B0002302930393049349
:102280000593009301931348134A02602D22426084
:10229000836042F20F72C2600361836103F062FEE9
:1022A00090B94FF48053029302A90A4803F041FB0E
:1022B00060B90023009301936946064803F0F6FED7
:1022C00030B907B05DF804FBFFF79AFDFFF798FD02
:1022D000FFF796FDA0060020000C004008B50A4854
:1022E0000A4B03604FF4E133436000238360C36013
:1022F00003610C2242618361C36104F03BFB00B9BE
:1023000008BDFFF77DFD00BFB0030020004C00407A
:1023100008B50A480A4B036042F2CF03436000232A
:10232000836040F2E732C26003618023836103F07F
:1023300019FE00B908BDFFF763FD00BF840400204B
:102340000020004000B595B03022002108A804F01C
:102350003FFC002303930493059306930793019393
:102360001E4A116C41F080511164126C02F08052CF
:102370000192019A02931A4A116841F48041116056
:10238000126802F480420292029A0222089201210B
:102390000B9110210C910E920F930823109354234C
:1023A000119312920423139308A802F029F980B91B
:1023B0000F23039302210491002305934FF48053CC
:1023C0000693079303A802F06BFB20B915B05DF8E4
:1023D00004FBFFF715FDFFF713FD00BF00380240B7
:1023E0000070004010B500F015FCFFF7ABFFFFF7E1
:1023F000E7F9FFF7A7FAFFF705FDFFF753FDFFF732
:102400006DFDFFF7C3FDFFF7E7FDFFF70DFEFFF7DB
:1024100027FEFFF75BFEFFF7BFFEFFF72BFFFFF77F
:102420005DFFFFF775FFFDF73DFF0020FEF774FE2F
:10243000FEF75CFD00240AE000235A2232212046E8
:10244000FEF7ECFE00212046FEF718FF0134032CB6
:10245000F2DDFEF7A5FC31220549064804F052FBE7
:102460000228F8D0FFF71AFCFFF7C0FAF3E700BF25
:1024700088020020B003002082B0002100910B4BA5
:102480005A6C42F480425A645A6C02F480420092C0
:10249000009A01911A6C42F080521A641B6C03F08E
:1024A00080530193019B02B0704700BF0038024087
:1024B00030B589B0002303930493059306930793E3
:1024C000026803F1804303F590339A4201D009B0CA
:1024D00030BD04460025019503F58C335A6C42F457
:1024E00080725A645A6C02F480720192019A0295C9
:1024F0001A6B42F001021A631B6B03F00103029393
:10250000029B0F2303930323049303A9104801F0B4
:102510007DF91048104B036045608560C5604FF43D
:10252000806303614FF4006343614FF400538361A0
:102530004FF48073C3610562456200F04FFF18B924
:10254000044BA3639C63C2E7FFF75AFCF8E700BFA4
:1025500000000240CC0A00201064024030B58BB06D
:102560000023059306930793089309930368274A6A
:10257000934204D0264A934225D00BB030BD0025AB
:102580000195244C236B43F002032363236B03F078
:1025900002030193019B4FF44073059312230693AA
:1025A000032308930423099305A91B4801F02EF97E
:1025B0000295236C43F400132364236C03F400138B
:1025C0000293029BD9E700250395124C236B43F03D
:1025D00020032363236B03F020030393039B032354
:1025E00005931222069208930423099305A90B4828
:1025F00001F00CF90495236C43F480032364236CED
:1026000003F480030493049BB7E700BF0054004029
:10261000005800400038024000040240001402400C
:1026200070B590B000230B930C930D930E930F9302
:102630000368834A93422FD00446B3F1804F6AD097
:10264000804A934200F09E807F4A934200F0A88027
:102650007E4A934200F0B8807D4A934200F0C880E1
:102660007C4A934200F0D8807B4A934240F09680A7
:1026700000210A91794B1A6C42F480721A641B6C27
:1026800003F480730A930A9B0A462D2000F0F0FDA4
:102690002D2000F0FDFD81E0002401946F4B5A6C69
:1026A00042F001025A645A6C02F001020192019A4E
:1026B00002941A6B42F010021A631A6B02F01002B5
:1026C0000292029A03941A6B42F001021A631B6B86
:1026D00003F001030393039B4FF4D0430B930226B3
:1026E0000C9601250F950BA95D4801F08FF84FF46A
:1026F00080730B930C960D940E940F950BA959486B
:1027000001F084F8224621461B2000F0B1FD1B2079
:1027100000F0BEFD42E000230493504A116C41F0EA
:1027200001011164126C02F001020492049A4E48F5
:102730004E4A02604FF0C062426040228260C36035
:102740004FF4806202614FF4805242614FF4804244
:102750008261C3614FF480320262436200F03EFE48
:1027600068B9414B23629C63E3629C63002211467B
:102770001C2000F07DFD1C2000F08AFD0EE0FFF71C
:102780003FFBEEE700230593344B1A6C42F0020244
:102790001A641B6C03F002030593059B10B070BD17
:1027A000002106912D4B1A6C42F004021A641B6C36
:1027B00003F004030693069B0A461E2000F058FD12
:1027C0001E2000F065FDE9E700210791234B1A6CFC
:1027D00042F008021A641B6C03F008030793079B7E
:1027E0000A46322000F044FD322000F051FDD5E7CA
:1027F00000210891194B1A6C42F010021A641B6CEC
:1028000003F010030893089B0A46362000F030FDC1
:10281000362000F03DFDC1E7002109910F4B1A6CF5
:1028200042F020021A641B6C03F020030993099BF9
:102830000A46372000F01CFD372000F029FDADE7E7
:10284000000001400004004000080040000C00406F
:1028500000100040001400400020004000380240FA
:1028600000100240000002402404002028600240C2
:1028700000B589B00023039304930593069307934F
:102880000368B3F1804F05D01B4A93421CD009B0B6
:102890005DF804FB00230193184B1A6B42F002020F
:1028A0001A631B6B03F002030193019B4FF48063D7
:1028B000039302230493032306930123079303A99D
:1028C0000F4800F0A3FFE2E7002302930B4B1A6BC3
:1028D00042F004021A631B6B03F004030293029B91
:1028E0004FF47073039302230493079303A90548DD
:1028F00000F08CFFCBE700BF00040040003802402E
:10290000000402400008024010B503683A4A9342AE
:102910001FD00446B3F1804F2FD0384A93423BD0AA
:10292000374A93423FD0374A934246D0364A934281
:102930004DD0364A934254D0354A934232D102F5B3
:102940000632136C23F4807313642D2000F0AEFC68
:1029500028E002F59C32536C23F0010353644FF4DA
:10296000D0412C4801F048F84FF480712A4801F01A
:1029700043F81B2000F09AFC14E0284A136C23F063
:1029800001031364006A00F08FFDE06A00F08CFD23
:102990001C2000F08BFC05E002F50D32136C23F0D7
:1029A0000203136410BD02F50C32136C23F0040310
:1029B00013641E2000F07AFCF4E702F50B32136C6E
:1029C00023F008031364322000F070FCEAE702F5FC
:1029D0000A32136C23F010031364362000F066FCF7
:1029E000E0E702F50932136C23F02003136437206B
:1029F00000F05CFCD6E700BF00000140000400408E
:102A000000080040000C004000100040001400408E
:102A10000020004000100240000002400038024048
:102A200030B589B00023039304930593069307936D
:102A30000268274B9A4201D009B030BD04460025F8
:102A4000019503F5F6331A6C42F400221A641A6CED
:102A500002F400220192019A02951A6B42F00402DC
:102A60001A631B6B03F004030293029B4FF4406351
:102A7000039302230493032306930823079303A9D4
:102A8000144800F0C3FE1448144B03604FF0006379
:102A900043608560C5604FF4806303614561856173
:102AA000C5614FF440330362456200F097FC58B9AA
:102AB000094BA3639C6300221146342000F0D8FB2D
:102AC000342000F0E5FBB7E7FFF79AF9F0E700BF25
:102AD000004C0040000802405003002040600240CB
:102AE000FEE7FEE7FEE7FEE7FEE770477047704748
:102AF00008B500F0A9F808BD08B5024800F098FD37
:102B000008BD00BF2404002008B5024800F090FD75
:102B100008BD00BF5003002008B5024802F0A7FA24
:102B200008BD00BF7009002008B5024802F09FFAF6
:102B300008BD00BFBC08002008B5024802F097FAA3
:102B400008BD00BF5407002008B54FF4004000F056
:102B5000FBFF08BD08B5024802F089FA08BD00BFB6
:102B60008404002008B5024802F081FA08BD00BFC5
:102B7000A006002008B5024803F098FD08BD00BF7C
:102B8000B003002008B5024802F071FA08BD00BF8A
:102B9000EC05002008B5024802F069FA08BD00BF44
:102BA0003805002008B5024800F042FD08BD00BF0E
:102BB000CC0A0020034AD2F8883043F47003C2F8EC
:102BC0008830704700ED00E010B504460E4B1A78CF
:102BD0004FF47A73B3FBF2F30C4A1068B0FBF3F0D6
:102BE00000F068FB68B90F2C01D901200AE000222F
:102BF00021464FF0FF3000F03BFB054B1C600020EE
:102C000000E0012010BD00BF0C00002008000020E3
:102C10001000002008B50B4B1A6842F400721A60CD
:102C20001A6842F480621A601A6842F480721A606C
:102C3000032000F00BFB0F20FFF7C6FFFFF71CFC83
:102C4000002008BD003C0240034A1168034B1B787A
:102C50000B441360704700BF740B00200C00002071
:102C6000014B1868704700BF740B00204A4B5A682C
:102C700022F440325A605A6841680A435A60026836
:102C8000536823F48073536002685368016943EA10
:102C9000012353600268536823F040735360026855
:102CA000536881680B4353600268936823F40063A0
:102CB000936002689368C1680B439360826A374BE4
:102CC0009A4257D00268936823F070639360026859
:102CD0009368816A0B4393600268936823F04053C2
:102CE000936002689368C16A0B43936002689368BB
:102CF00023F00203936002689368017E43EA410374
:102D0000936090F82030002B3FD00268536843F462
:102D1000006353600268536823F4604353600168A2
:102D20004B68426A013A43EA42334B600268D36A15
:102D300023F47003D3620168CB6AC269013A43EAA3
:102D40000253CB620268936823F4007393600268B5
:102D5000936890F8301043EA4123936002689368C7
:102D600023F48063936002689368416943EA812396
:102D7000936070470268936823F070639360026801
:102D8000936823F040539360B0E70268536823F4DC
:102D900000635360CAE700BF002301400100000F39
:102DA00038B310B50446036C43B1236C13F0100F15
:102DB0000BD00120002384F83C3010BDFFF778FBD6
:102DC0000023636484F83C30EFE7236C23F48853DA
:102DD00023F0020343F0020323642046FFF746FF7B
:102DE00000206064236C23F0030343F00103236499
:102DF000E0E701207047000010B582B013460022C2
:102E0000019290F83C20012A00F0AE800446012295
:102E100080F83C200268906810F0010F13D1906890
:102E200040F001009060534A1068534AA2FB002012
:102E3000800C00EB4000019002E001980138019005
:102E400001980028F9D12268906810F4807F03D09F
:102E5000906820F4807090602268906810F0010FF4
:102E600077D0206C20F4E06020F0010040F4807006
:102E70002064526812F4806F05D0226C22F4405214
:102E800042F480522264226C12F4805F36D0626C6D
:102E900022F006026264002284F83C20A26B3748CC
:102EA000D063A26B36481064A26B3648D0642268A7
:102EB0006FF0220010602068426842F08062426039
:102EC0002068826842F48072826020680A4600F1BD
:102ED0004C01A06B00F01AFB2B4B5B6813F01F0F2B
:102EE00027D12368294A934211D002F58072934278
:102EF00007D0274A934214D0002033E000226264B6
:102F0000C9E702F50072526812F01F0FF1D19A68FA
:102F100012F0405F2AD19A6842F080429A60002005
:102F200020E002F58072526812F0100FEFD00020FE
:102F300018E02368154A934201D0002012E09A68F5
:102F400012F0405F14D19A6842F080429A600020EB
:102F500008E0236C43F010032364636C43F0010327
:102F60006364002002B010BD0220FBE70020F9E7F7
:102F70000020F7E70800002083DE1B43BB2F00087A
:102F8000992F0008A52F00080023014000200140D0
:102F9000002201407047704708B5806BFFF7FBFFC8
:102FA00008BD704708B5806B40230364436C43F051
:102FB00004034364FFF7F5FF08BD08B50346806BC3
:102FC000026C12F0500F25D1036C43F400730364BC
:102FD00003689A6812F0405F19D1027EBAB9DA6AC2
:102FE00012F4700F03D09A6812F4806F0FD15A68F0
:102FF00022F020025A60036C23F480730364036C94
:1030000013F4805F03D1036C43F001030364FFF703
:10301000C1FF08BD026C12F0100F04D1826BD26C9C
:1030200018469047F5E7FFF7BCFFF2E730B482B0EF
:103030000022019290F83C20012A00F0B68003465D
:10304000012280F83C200A68092A40D90468E06817
:1030500092B202EB42021E3A4FF0070C0CFA02F257
:1030600020EA0202E2601C68E0680A8802EB420281
:103070001E3A8D6805FA02F20243E2604A68062AA7
:103080003CD81C68606B02EB8202053A4FF01F0CC3
:103090000CFA02F220EA020262631C68606B4A6862
:1030A00002EB8202053AB1F800C00CFA02F20243C8
:1030B000626318683E4A904250D018683C4A904279
:1030C00055D0002083F83C0002B030BC7047046843
:1030D000206992B202EB42024FF0070C0CFA02F2A6
:1030E00020EA020222611C6820690A8802EB42027F
:1030F0008D6805FA02F202432261BFE70C2A16D856
:103100001D68286B02EB8202233A1F2404FA02F2A4
:1031100020EA02022A631D68286B4A6802EB8202D9
:10312000233A0C8804FA02F202432A63C1E71D68BD
:10313000E86A02EB8202413A1F2404FA02F220EA12
:103140000202EA621D68E86A4A6802EB8202413ABA
:103150000C8804FA02F20243EA62AAE70A68122A19
:10316000ABD11448426842F480024260A5E70A6885
:10317000103A012AA5D80F48426842F40002426082
:103180000A68102A9DD10C4A12680C49A1FB021250
:10319000920C02EB82025200019202E0019A013A83
:1031A0000192019A002AF9D18BE702208CE700BF37
:1031B00000200140002301400800002083DE1B4363
:1031C00000280CDB00F01F0240090123934020304F
:1031D000034A42F82030BFF34F8FBFF36F8F704721
:1031E00000E100E0002808DB0901C9B200F16040FD
:1031F00000F5614080F80013704700F00F000901EE
:10320000C9B2014B1954704714ED00E000B500F04D
:103210000700C0F1070CBCF1040F28BF4FF0040CED
:10322000031D062B0FD9C31E4FF0FF3E0EFA0CF004
:1032300021EA000199400EFA03FE22EA0E0241EA59
:1032400002005DF804FB0023EEE70000074AD368A4
:1032500023F4E0631B041B0C000200F4E060034352
:1032600043F0BF6343F40033D360704700ED00E0E8
:1032700010B50446054BD868C0F30220FFF7C6FF1F
:1032800001462046FFF7AEFF10BD00BF00ED00E095
:10329000002807DB00F01F02400901239340024A87
:1032A00042F82030704700BF00E100E008B5FFF7AA
:1032B00087FF08BD0138B0F1807F0BD24FF0E023CB
:1032C0005861054AF02182F82310002098610722F6
:1032D0001A6170470120704700ED00E030B40568C6
:1032E0002C6824F480242C60046863608368402B7D
:1032F00005D0036899600368DA6030BC70470368E2
:103300009A600368D960F8E710B40368D9B210393D
:103310000C4AA2FB014212090B4CA25CC2655F2958
:1033200009D923F47F7323F0030304338365806D8D
:103330005DF8044B704723F47F7323F00303836528
:10334000F5E700BFABAAAAAAF0770008836A8269F2
:1033500092B9012B0AD0022B02D00BB1002070478A
:10336000C36A13F0807F28D100207047C36AB3F18D
:10337000C07F24D000207047B2F5005F09D0022B37
:1033800025D9032B25D1C36A13F0807F23D10020D8
:103390007047032B03D8DFE803F01404140A00205D
:1033A0007047C36A13F0807F0DD100207047C36A55
:1033B000B3F1C07F09D00020704701207047012081
:1033C000704701207047012070470120704701209D
:1033D00070470020704701207047000070B5044618
:1033E000FFF73EFC002C5BD00546022384F8353005
:1033F000002384F834302268136823F0010313603B
:1034000023681A6812F0010F0AD0FFF729FC431B4A
:10341000052BF5D920236365032084F8350070BDA2
:103420001A68204911406268A0680243E0680243BC
:103430002069024360690243A0690243E0690243D4
:10344000206A02430A43616A04291ED01A60266872
:10345000756925F00705636A1D43042B07D1A36A2C
:103460001D43E36A1BB12046FFF770FF90B97561F9
:103470002046FFF749FFE26D3F2393408360002021
:103480006065012384F83530C9E7E16A206B0143A8
:103490000A43DBE740236365012084F83500BEE77B
:1034A0000120BCE73F8010F000282DD038B505463C
:1034B00090F83500C0B2022825D02A68136823F09E
:1034C000010313602B6800241C602B685C602B6870
:1034D0009C602B68DC602B681C612B6821225A6180
:1034E0002846FFF711FFEC632C646C64AC64EC6459
:1034F0002C65EA6D3F23934083606C6585F8354009
:1035000085F83440204638BD0120704738B5044660
:10351000856D90F8340001282BD0012084F8340008
:1035200094F83500C0B2012804D0002384F8343068
:10353000022038BD022084F8350000206065204656
:10354000FFF7CCFEE26D3F239340AB602268136827
:1035500043F016031360236C23B12268136843F011
:10356000080313602268136843F00103136000200E
:10357000DFE70220DDE770B50446866DFFF770FBDC
:1035800094F83530DBB2022B06D08023636500232C
:1035900084F83430012070BD05462268136823F09A
:1035A000160313602268536923F080035361236C70
:1035B000E3B12268136823F00803136022681368DC
:1035C00023F00103136023681B6813F0010F11D06F
:1035D000FFF746FB431B052BF5D92023636503202A
:1035E00084F83500002384F83430D4E7A36C002B32
:1035F000DFD1E3E7E26D3F239340B360012384F81A
:103600003530002084F83400C5E790F83530DBB25F
:10361000022B03D08023436501207047052380F8E7
:1036200035300268136823F00103136000207047EF
:10363000F0B583B0044600230193724B1D68724BB2
:10364000A3FB0535AD0A876D3E68C26D0823934024
:10365000334210D003681A6812F0040F0BD01A68B6
:1036600022F004021A60C26D08239340BB60436DD0
:1036700043F001034365E26D01239340334209D0D7
:103680002268526912F0800F04D0BB60636D43F072
:1036900002036365E26D04239340334209D022683C
:1036A000126812F0020F04D0BB60636D43F0040394
:1036B0006365E26D10239340334224D02268126880
:1036C00012F0080F1FD0BB6023681A6812F4802F15
:1036D0000DD01B6813F4002F04D1236C9BB120463E
:1036E000984710E0A36C73B1204698470BE01A6826
:1036F00012F4807F03D11A6822F008021A60236C4A
:103700000BB120469847E26D20239340334255D0B9
:103710002268126812F0100F50D0BB6094F8353058
:10372000DBB2052B0ED023681A6812F4802F33D039
:103730001B6813F4002F2AD1636C002B3ED0204667
:1037400098473BE02268136823F016031360226851
:10375000536923F080035361236CA3B1226813687B
:1037600023F008031360E26D3F239340BB60012305
:1037700084F83530002384F83430236D002B3FD09B
:10378000204698473CE0A36C002BE7D1EBE7E36BC6
:10379000A3B12046984711E01A6812F4807F09D13E
:1037A0001A6822F010021A60012384F835300023D1
:1037B00084F83430E36B0BB120469847636DFBB15E
:1037C000636D13F0010F17D0052384F8353022689C
:1037D000136823F001031360019B01330193AB4293
:1037E00004D823681B6813F0010FF5D1012384F876
:1037F0003530002384F83430E36C0BB12046984711
:1038000003B0F0BD08000020B5814E1B00230F2B34
:1038100000F2E98070B582B065E085684FEA430E3A
:10382000032404FA0EF425EA0405CC6804FA0EF425
:103830002C438460446824EA02044A68C2F30012FC
:103840009A40224342605CE0DC08083450F82420AF
:1038500003F00705AD004FF00F0E0EFA05FE22EA49
:103860000E0E0A69AA4042EA0E0240F824205CE0EB
:10387000072200E0002202FA0EF22A4302345A4DD7
:1038800045F82420594A94686FEA0C0224EA0C0592
:103890004E6816F4801F01D04CEA0405534CA56015
:1038A000E46802EA04054E6816F4001F01D04CEAF1
:1038B00004054E4CE560646802EA04054E6816F49F
:1038C000003F01D04CEA0405484C65602468224062
:1038D0004D6815F4803F01D04CEA0402434C22604D
:1038E00001330F2B7DD801229A400C6804EA020CA8
:1038F00032EA0404F4D14C6804F00304013C012CC6
:103900008BD94A6802F00302032A09D0C4685D001B
:103910000322AA4024EA02048A68AA402243C26021
:103920004A6802F00302022A8ED004684FEA430E6E
:10393000032202FA0EF224EA02044A6802F00302A9
:1039400002FA0EF2224302604A6812F4403FC7D0E6
:1039500000220192264A546C44F480445464526C10
:1039600002F480420192019A9C08A51C1E4A52F85A
:10397000255003F0030E4FEA8E0E0F2202FA0EF2CC
:1039800025EA02051B4A90423FF474AF02F58062BB
:1039900090421AD002F58062904218D002F58062FF
:1039A000904216D002F58062904214D002F58062F7
:1039B000904212D002F58062904210D002F58062EF
:1039C00090423FF455AF082255E7012253E7022207
:1039D00051E703224FE704224DE705224BE7062279
:1039E00049E702B070BD704700380140003C01401B
:1039F000003802400000024000230F2B00F28F80AD
:103A0000F0B52DE0072500E0002505FA0CF5A542EC
:103A100069D004685D004FF0030C0CFA05FC24EA41
:103A20000C0404604FEAD30E0EF1080E50F82E403D
:103A300003F00706B6000F25B54024EA050440F858
:103A40002E40C46824EA0C04C460446824EA0202DC
:103A50004260826822EA0C02826001330F2B5DD83B
:103A600001229A4002EA010632EA0104F5D14FEA46
:103A7000930E0EF102052A4C54F8254003F0030C76
:103A80004FEA8C0C0F2505FA0CF73C40254DA84257
:103A9000BAD005F58065A84219D005F58065A84221
:103AA00017D005F58065A84215D005F58065A842B8
:103AB00013D005F58065A84211D005F58065A842B0
:103AC0000FD005F58065A8429CD008259DE701250B
:103AD0009BE7022599E7032597E7042595E7052548
:103AE00093E7062591E7104C256825EA0605256031
:103AF000656825EA06056560E56825EA0605E5606E
:103B0000A56825EA0605A560054E0EF1020456F8E3
:103B1000245025EA070546F824507AE7F0BD70479F
:103B20000038014000000240003C01400369194296
:103B300001D001207047002070470AB181617047B1
:103B4000090481617047704708B5054B5B69034202
:103B500000D108BD024B5861FFF7F5FFF9E700BF40
:103B6000003C014003685A6912F4806F01D10020C3
:103B700070476FF480625A6100230363202280F84B
:103B80003D2080F83E30026C42F00402026480F86E
:103B90003C30012070472DE9F04107460D46904624
:103BA0001E4624E0FFF75CF8069BC01AB04200D81E
:103BB000EEB900233B63202287F83D2087F83E3092
:103BC0003A6C42F020023A6487F83C3001201EE053
:103BD0003B689C6925EA040C1FFA8CFCBCFA8CFC3F
:103BE0004FEA5C1CE04511D1B6F1FF3FDAD1C5F3D5
:103BF0000743012BECD13B685B6925EA030C1FFAF4
:103C00008CFCBCFA8CFC4FEA5C1CEBE70020BDE8A6
:103C1000F0812DE9F04105460E46174698463DE0F5
:103C20001A6842F400721A602B686FF480625A615D
:103C300000232B63202285F83D2085F83E302A6C36
:103C400042F004022A6485F83C30012034E0FFF79A
:103C500007F8A0EB0800B84200D8FFB900232B6397
:103C6000202285F83D2085F83E302A6C42F0200263
:103C70002A6485F83C3001201EE02B689C6926EA06
:103C80000404A4B2003C18BF0124A4B12B685A69F3
:103C900012F4806FC4D1B7F1FF3FD8D1C6F3074308
:103CA000012BEAD12B685C6926EA0404A4B2003C2B
:103CB00018BF0124E9E70020BDE8F08170B5044693
:103CC0000D46164623685B6913F0800F1CD1204611
:103CD000FFF748FFD0B9B5F1FF3FF3D0FEF7C0FFC3
:103CE000801BA84201D8002DECD1002323632022A1
:103CF00084F83D2084F83E30226C42F02002226499
:103D000084F83C30012000E0002070BD0120FCE779
:103D10002DE9F04385B004460D4691461F46DDF877
:103D200030800D9E0368196841F480711960009617
:103D3000434600224FF00111FFF72DFF60B92368C1
:103D400005F0FE051D613346424626492046FFF731
:103D500060FF68B1012008E023681B6813F4807FCE
:103D600002D04FF400732364032005B0BDE8F08354
:103D70000023039323685A6903929B690393039B6F
:103D8000324641462046FFF799FF30B9012F0FD147
:103D900023685FFA89F61E61E7E7236C042B01D0E4
:103DA0000120E2E72268136843F400731360F7E729
:103DB00023684FEA19221A61324641462046FFF72E
:103DC0007DFF20B923685FFA89F61E61CDE7236C79
:103DD000042B01D00120C8E72268136843F4007364
:103DE0001360F7E7020001002DE9F04784B00446B4
:103DF0000D46164699460C9FDDF83480026813681C
:103E000043F4806313600368196841F4807119609A
:103E1000CDF800803B4600224FF00111FFF7BBFEBA
:103E200070B95FFA85FA236805F0FE051D61434607
:103E30003A4641492046FFF7ECFE68B1012008E010
:103E400023681B6813F4807F02D04FF4007323644F
:103E5000032004B0BDE8F0870023039323685A6968
:103E600003929B690393039B424639462046FFF722
:103E700025FF80B9B9F1010F18D12368F6B21E6190
:103E8000424639462046FFF719FF68B3236C042BDE
:103E900024D00120DDE7236C042B01D00120D8E7DA
:103EA0002268136843F400731360F7E72368320A4B
:103EB0001A61424639462046FFF700FF18B92368C9
:103EC000F6B21E61DCE7236C042B01D00120C0E7B1
:103ED0002268136843F400731360F7E722681368DD
:103EE00043F400731360D4E72268136843F48073CB
:103EF0001360CDF800803B4600224FF001112046B0
:103F0000FFF749FE68B922684AF00103136143468E
:103F10003A4609492046FFF77CFE002899D0012047
:103F200097E723681B6813F4807F02D04FF4007377
:103F3000236403208DE700BF0200010070B5044632
:103F40000D46164623685B6913F0040F1CD120460A
:103F5000FFF708FED0B9B5F1FF3FF3D0FEF780FEC2
:103F6000801BA84201D8002DECD10023236320221E
:103F700084F83D2084F83E30226C42F02002226416
:103F800084F83C30012000E0002070BD0120FCE7F7
:103F900070B505460C4616462B68596911F0400F5E
:103FA00029D1596911F0100F15D1FEF759FE801B68
:103FB000A04201D8002CEFD100232B63202285F8EA
:103FC0003D2085F83E302A6C42F020022A6485F8B4
:103FD0003C30012070BD6FF010025A6100232B634A
:103FE000202285F83D2085F83E302A6C2A6485F829
:103FF0003C300120EEE70020ECE70000002800F054
:10400000CC8070B5044690F83D30002B77D0242347
:1040100084F83D302268136823F00103136022689E
:10402000136843F4004313602268136823F40043C9
:10403000136000F0EBFD62685A4B9A4264D85A4B09
:1040400098428CBF00230123002B40F0A8805749E1
:10405000A1FB00318B0C25686A6822F03F0242EA1E
:1040600091426A6021680A6A22F03F0266684D4DFB
:10407000AE424FD8013313430B622168CA6922F460
:104080004F4222F0FF026568464B9D424CD8431ECA
:104090006D00B3FBF5F3013340F6FC70034278D0BA
:1040A000C3F30B031A43CA6121680B6823F0C003F2
:1040B000E269206A024313430B6021688B6823F492
:1040C000034323F0FF032269E068024313438B603C
:1040D0002168CB6823F0FF036269A06902431343A0
:1040E000CB602268136843F0010313600020206452
:1040F000202384F83D30206384F83E0070BD80F8B2
:104100003C30FEF72BFA82E7294B98428CBF002304
:10411000012399E74FF4967505FB03F3254DA5FBA5
:1041200003539B090133A6E7A668BEB9431E05EBFE
:10413000450CB3FBFCF30133C3F30B03B3FA83F376
:104140005B0943BBC6B9431E05EB4505B3FBF5F35D
:104150000133C3F30B0343F40043A3E7431E05EB12
:10416000850C0CEB8C0CB3FBFCF30133C3F30B039A
:10417000B3FA83F35B09E4E7431E05EB850505EB22
:104180008505B3FBF5F30133C3F30B0343F440435D
:1041900088E7042386E7012384E701207047012094
:1041A000ACE700BFA08601007F841E0083DE1B43B6
:1041B000FF083D00D34D62102DE9F04383B0044663
:1041C0000F46904699460C9EFEF74AFD054694F828
:1041D0003D00C0B2202803D0022003B0BDE8F08328
:1041E0000095192301224B492046FFF7D4FC0028F3
:1041F00040F0898094F83C30012B00F08680012348
:1042000084F83C3023681A6812F0010F03D11A6851
:1042100042F001021A602268136823F400631360FD
:10422000212384F83D30402384F83E30002323646A
:104230000A9B6362BDF82C306385638D2385364B02
:10424000E362019500964B46424639462046FFF709
:104250005FFD00285BD1238D002B35D02A463146E7
:104260002046FFF72BFD20BB626A236812781A6193
:10427000626A531C6362218D013989B22185638D85
:104280009BB2013B9BB263852368586910F0040F11
:10429000E1D00029DFD052781A61636A013363628A
:1042A000238D013B2385638D9BB2013B9BB26385CC
:1042B000D1E7236C042B01D001208EE7226813681C
:1042C00043F400731360F7E72A4631462046FFF7B0
:1042D00035FE50B1236C042B01D001207DE722680C
:1042E000136843F400731360F7E72268136843F41C
:1042F00000731360202384F83D30002384F83E309F
:1043000084F83C3069E7022067E7022065E7012076
:1043100063E700BF020010000000FFFF2DE9F0433B
:1043200087B004460F4690469946109EFEF798FCCB
:10433000054694F83D00C0B2202804D00227384634
:1043400007B0BDE8F0830095192301228849204673
:10435000FFF721FC002840F0438194F83C30012B0A
:1043600000F04081012384F83C3023681A6812F081
:10437000010F03D11A6842F001021A602268136823
:1043800023F400631360222384F83D30402384F833
:104390003E30002323640E9B6362BDF83C3063858E
:1043A000638D2385734BE362019500964B4642462D
:1043B00039462046FFF718FD0746002840F01481D3
:1043C000238D5BB9029323685A6902929A6902921B
:1043D000029A1A6842F400721A6075E0012B0AD042
:1043E000022B1AD00023059323685A6905929B6912
:1043F0000593059B68E02268136823F480631360CB
:104400000023039323685A6903929A690392039ADB
:104410001A6842F400721A6056E02268136823F4A6
:10442000806313602268136843F400631360002301
:10443000049323685A6904929B690493049B43E0A4
:104440002A4631462046FFF7A3FD002840F0CE80E3
:1044500023681A69636A1A70636A01336362238D81
:10446000013B2385638D9BB2013B9BB263852BE0AF
:1044700000953346002240492046FFF78CFB002878
:1044800040F0B6802268136843F400731360236819
:104490001A69636A1A70626A531C6362238D013B56
:1044A0002385638D9BB2013B9BB2638523681B69A7
:1044B0005370636A01336362238D013B2385638DEF
:1044C0009BB2013B9BB26385238D002B7FD0032BD6
:1044D00054D8012BB4D0022BCAD000953346002209
:1044E00025492046FFF757FB002840F083802268CB
:1044F000136823F48063136023681A69636A1A706F
:10450000636A01336362238D013B2385638D9BB214
:10451000013B9BB263850095334600221649204635
:10452000FFF739FB002867D12268136843F4007352
:10453000136023681A69636A1A70626A531C6362A3
:10454000238D013B2385638D9BB2013B9BB2638529
:1045500023681B695370636A01336362238D013BD7
:104560002385638D9BB2013B9BB26385ACE700BFA3
:10457000020010000000FFFF040001002A4631463F
:104580002046FFF705FD002838D123681A69636AC1
:104590001A70626A531C6362238D013B2385638D0D
:1045A0009BB2013B9BB263852368596911F0040FEC
:1045B0008AD01B695370636A01336362238D013BA8
:1045C0002385638D9BB2013B9BB263857CE72023EF
:1045D00084F83D30002384F83E3084F83C30AEE669
:1045E0000227ACE60227AAE60127A8E60127A6E6ED
:1045F0000127A4E60127A2E60127A0E601279EE6FF
:10460000002800F0E08170B582B00446036813F022
:10461000010F3BD09F4B9B6803F00C03042B2CD065
:104620009C4B9B6803F00C03082B21D06368B3F507
:10463000803F4FD0B3F5A02F52D0964B1A6822F48A
:1046400080321A601A6822F480221A606368002B94
:1046500050D0FEF705FB05468E4B1B6813F4003F58
:1046600014D1FEF7FDFA401B6428F5D90320B1E10F
:10467000884B5B6813F4800FD8D0864B1B6813F40B
:10468000003F03D06368002B00F09F81236813F084
:10469000020F54D07F4B9B6813F00C0F3ED07D4B24
:1046A0009B6803F00C03082B33D0E368002B68D021
:1046B000794B01221A60FEF7D3FA0546754B1B6849
:1046C00013F0020F54D1FEF7CBFA401B0228F5D9A4
:1046D00003207FE16F4A136843F480331360B5E72A
:1046E0006C4B1A6842F480221A601A6842F48032D5
:1046F0001A60ABE7FEF7B4FA0546664B1B6813F485
:10470000003FC3D0FEF7ACFA401B6428F5D9032064
:1047100060E1604B5B6813F4800FC6D15D4B1B6892
:1047200013F0020F03D0E368012B40F05081594A87
:10473000136823F0F803216943EAC1031360236877
:1047400013F0080F42D063696BB3534B0122C3F8D7
:10475000802EFEF785FA05464E4B5B6F13F0020F75
:1047600034D1FEF77DFA401B0228F5D9032031E150
:10477000484A136823F0F803216943EAC103136030
:10478000DDE7454B00221A60FEF76AFA0546414B09
:104790001B6813F0020FD2D0FEF762FA401B02280A
:1047A000F5D9032016E13C4B0022C3F8802EFEF71A
:1047B00057FA0546374B5B6F13F0020F06D0FEF732
:1047C0004FFA401B0228F5D9032003E1236813F0B8
:1047D000040F77D02F4B1B6C13F0805F33D1002375
:1047E00001932C4B1A6C42F080521A641B6C03F03C
:1047F00080530193019B0125284B1B6813F4807F94
:1048000023D0A368012B34D0052B38D0214B1A6F4D
:1048100022F001021A671A6F22F004021A67A368D5
:10482000002B3DD0FEF71CFA06461A4B1B6F13F007
:10483000020F46D1FEF714FA801B41F288339842EA
:10484000F3D90320C6E00025D6E7144A136843F4E1
:1048500080731360FEF704FA0646104B1B6813F4CE
:10486000807FCED1FEF7FCF9801B0228F5D903200A
:10487000B0E0084A136F43F001031367CFE7054B1D
:104880001A6F42F004021A671A6F42F001021A67A7
:10489000C5E700BF003802400000474200700040FA
:1048A000FEF7DEF90646524B1B6F13F0020F08D0DD
:1048B000FEF7D6F9801B41F288339842F3D90320E2
:1048C00088E0EDB9A369002B00F08380484A926824
:1048D00002F00C02082A51D0022B17D0454B0022BF
:1048E0001A66FEF7BDF90446414B1B6813F0007FC2
:1048F00042D0FEF7B5F9001B0228F5D9032069E084
:104900003B4A136C23F080531364DBE7394B0022DE
:104910001A66FEF7A5F90546354B1B6813F0007FB4
:1049200006D0FEF79DF9401B0228F5D9032051E07F
:10493000E369226A1343626A43EA8213A26A520855
:10494000013A43EA0243E26A43EA0263284A5360B7
:10495000284B01221A66FEF783F90446244B1B6894
:1049600013F0007F06D1FEF77BF9001B0228F5D972
:1049700003202FE000202DE000202BE0012B2BD086
:104980001B4B5B6803F48001E269914226D103F07E
:104990003F02216A8A4223D1616A47F6C0721A40F7
:1049A000B2EB811F1ED103F44031A26A5208013AD2
:1049B000B1EB024F18D103F07063E26AB3EB026F00
:1049C00014D1002006E001207047012002E0012000
:1049D00000E0002002B070BD0120FBE70120F9E7F4
:1049E0000120F7E70120F5E70120F3E70120F1E7D7
:1049F000003802400000474208B5264B9B6803F090
:104A00000C03042B41D0082B41D1224B5A6802F0F1
:104A10003F025B6813F4800F12D01E4B5968C1F33C
:104A200088111D480023A1FB0001FBF701FC194B75
:104A30005B68C3F3014301335B00B0FBF3F027E095
:104A4000144B5868C0F388104FEA401CBCEB000CB4
:104A50006EEB0E0E4FEA8E1343EA9C634FEA8C1105
:104A6000B1EB0C0163EB0E03DB0043EA5173C900A9
:104A700011EB000C43F10003990200234FEA8C2054
:104A800041EA9C51FBF7D4FBD1E7034800E003481F
:104A900008BD00BF0038024040787D010024F400CA
:104AA000002800F09B8070B50D4604464F4B1B68F4
:104AB00003F007038B4208D2CBB24C4A1370136841
:104AC00003F007038B4240F08B80236813F0020F42
:104AD00017D013F0040F04D0454A936843F4E05311
:104AE0009360236813F0080F04D0414A936843F49D
:104AF000604393603E4A936823F0F003A1680B4340
:104B00009360236813F0010F32D06368012B21D02A
:104B10009A1E012A25D9364A126812F0020F61D076
:104B200033498A6822F0030213438B60FEF798F83A
:104B300006462F4B9B6803F00C036268B3EB820FB1
:104B400016D0FEF78DF8801B41F288339842F0D9D9
:104B5000032042E0264A126812F4003FE0D101200F
:104B60003BE0234A126812F0007FD9D1012034E0E3
:104B70001E4B1B6803F00703AB4207D9EAB21B4B7D
:104B80001A701B6803F00703AB422DD1236813F0A2
:104B9000040F06D0164A936823F4E053E1680B43F0
:104BA0009360236813F0080F07D0114A936823F429
:104BB0006043216943EAC1039360FFF71DFF0C4B7B
:104BC0009B68C3F303130B4AD35CD8400A4B1860AD
:104BD0000A4B1868FDF7F8FF002070BD01207047F0
:104BE0000120FAE70120F8E70120F6E7003C024047
:104BF00000380240E0770008080000201000002084
:104C0000014B1868704700BF0800002008B5FFF787
:104C1000F7FF044B9B68C3F38223034AD35CD8405D
:104C200008BD00BF00380240D877000808B5FFF77C
:104C3000E7FF044B9B68C3F34233034AD35CD8407D
:104C400008BD00BF00380240D877000870477047A1
:104C5000704770477047704770477047704770479C
:104C6000704770477047704770477047704770478C
:104C7000704710B5846B636A83420CD0A36A834289
:104C800014D0E36A834217D0236B83421AD00123E6
:104C900084F83D3003E00123237784F83E30D4F8D4
:104CA000A430204698470023237710BD02232377A2
:104CB000012384F83F30F2E704232377012384F8AB
:104CC0004030ECE708232377012384F84130E6E7FE
:104CD00010B5846B636A83420FD0A36A834215D0F8
:104CE000E36A83421BD0236B834221D0D4F89C30EB
:104CF000204698470023237710BD01232377C369FB
:104D0000002BF3D1012384F83E30EFE70223237711
:104D1000C369002BEAD1012384F83F30E6E704237E
:104D20002377C369002BE1D1012384F84030DDE70C
:104D300008232377C369002BD8D1012384F841309D
:104D4000D4E710B5846B636A83420BD0A36A8342B5
:104D500011D0E36A834211D0236B834204D108232C
:104D6000237701E001232377D4F8A0302046984729
:104D70000023237710BD02232377F5E7042323774D
:104D8000F2E7000030B4036A23F001030362036A10
:104D90004268846924F0730C0C6844EA0C0423F024
:104DA000020C8B6843EA0C03114DA84203D005F5B1
:104DB0008065A84205D123F00803CD682B4323F07A
:104DC00004030B4DA84203D005F58065A84207D126
:104DD00022F440724D6945EA020C8A6942EA0C02EB
:104DE000426084614A684263036230BC704700BF1E
:104DF0000000014030B4036A23F480730362036A45
:104E00004268C46924F0730C0C6844EA0C0523F46E
:104E100000738C6843EA0423114CA04203D004F5CC
:104E20008064A04206D123F40063CC6843EA0423E3
:104E300023F480630A4CA04203D004F58064A042AE
:104E400007D122F440524C6942EA04128C6942EACA
:104E500004124260C5614A68C263036230BC704795
:104E60000000014030B4036A23F480530362036AF4
:104E70004468C26922F4E6420D6842EA052223F43E
:104E800000538D6843EA0533094DA84203D005F568
:104E90008065A84204D124F480444D6944EA851415
:104EA0004460C2614A680264036230BC704700BF5C
:104EB0000000014010B4036A046A24F00104046293
:104EC000846924F0F00C4CEA021223F00A030B432D
:104ED000826103625DF8044B704730B4046A24F0C9
:104EE000100404628469056A24F4407C4CEA022CB4
:104EF0002CF4704C1B039BB243EA0C0325F0A00575
:104F0000090101F0A00129438361016230BC7047AF
:104F100010B4036A23F0100303628469036A24F463
:104F2000704C4CEA023223F0A00343EA0113826181
:104F300003625DF8044B704730B4046A24F4807453
:104F40000462C469056A24F0030C4CEA020C2CF0DC
:104F5000F00C1B01DBB243EA0C0325F420650902C7
:104F600001F420612943C361016230BC704730B451
:104F7000046A24F480540462C469056A24F4407C01
:104F80004CEA022C2CF4704C1B039BB243EA0C033A
:104F900025F42045090301F420412943C36101623E
:104FA00030BC7047836823F070030B4343F0070362
:104FB0008360704790F83D30DBB2012B37D102237C
:104FC00080F83D300268D36843F00103D360036882
:104FD000194A934220D0B3F1804F1DD0A2F57C42F4
:104FE000934219D002F58062934215D002F5806297
:104FF000934211D002F5784293420DD002F57052DF
:10500000934209D0A2F59432934205D01A6842F037
:1050100001021A60002070479A6802F00702062A0F
:1050200007D01A6842F001021A6000207047012080
:1050300070470020704700BF000001400268D3683D
:1050400023F00103D3600368196A41F2111211427F
:1050500008D1196A40F24442114203D11A6822F081
:1050600001021A60012380F83D300020704710B51E
:10507000044603681A6912F0020F13D0DA6812F0BE
:10508000020F0FD06FF002021A6101230377036849
:105090009B6913F0030F00F09280D0F8903098478E
:1050A0000023237723681A6912F0040F14D0DA68FA
:1050B00012F0040F10D06FF004021A61022323775C
:1050C00023689B6913F4407F00F08180D4F890300E
:1050D000204698470023237723681A6912F0080FA7
:1050E00013D0DA6812F0080F0FD06FF008021A61BF
:1050F000042323772368DB6913F0030F70D0D4F8FF
:105100009030204698470023237723681A6912F0CD
:10511000100F13D0DA6812F0100F0FD06FF01002DA
:105120001A61082323772368DB6913F4407F60D07A
:10513000D4F89030204698470023237723681A69D3
:1051400012F0010F0AD0DA6812F0010F06D06FF0EA
:1051500001021A61D4F880302046984723681A6902
:1051600012F0800F0AD0DA6812F0800F06D06FF0CC
:1051700080021A61D4F8B0302046984723681A6933
:1051800012F0400F0AD0DA6812F0400F06D06FF02C
:1051900040021A61D4F888302046984723681A697B
:1051A00012F0200F0AD0DA6812F0200F06D06FF04C
:1051B00020021A61D4F8A8302046984710BDD0F8D4
:1051C00098309847D4F89C302046984768E7D4F840
:1051D000983020469847D4F89C302046984779E785
:1051E000D4F8983020469847D4F89C302046984709
:1051F00089E7D4F8983020469847D4F89C30204668
:10520000984799E7002A00F0BA8010B40346144684
:1052100090F83C20012A00F0B480012280F83C2064
:1052200090F83D00C0B2904212D093F83D2002F0B9
:10523000FF00002A40F09A800D2900F29E80DFE8EE
:1052400001F0787B7D7F81838587898B8D8F91931A
:105250001A2900F28C80DFE801F00E1114171A1DD4
:10526000202326292C2F3235383C4044484C5054BA
:10527000585C606468009C64084678E0DC64002048
:1052800075E01C65002072E05C6500206FE09C65A5
:1052900000206CE0DC65002069E01C66002066E010
:1052A0005C66002063E09C66002060E0DC66002015
:1052B0005DE01C6700205AE05C67002057E09C67B7
:1052C000002054E0DC67002051E0C3F8804000205B
:1052D0004DE0C3F88440002049E0C3F88840002036
:1052E00045E0C3F88C40002041E0C3F89040002026
:1052F0003DE0C3F89440002039E0C3F89840002016
:1053000035E0C3F89C40002031E0C3F8A040002005
:105310002DE0C3F8A440002029E0C3F8A8400020F5
:1053200025E0C3F8AC40002021E0C3F8B0400020E5
:105330001DE09C6408461AE0DC6418E01C6516E079
:105340005C6514E09C6512E0DC6510E01C660EE014
:105350005C660CE09C660AE0DC6608E01C6706E020
:105360005C6704E09C6702E0DC6700E0012000224B
:1053700083F83C205DF8044B70470120F7E70120DB
:1053800070470220F6E70000034690F83C20012A0F
:1053900000F0E080012280F83C2090F83D00C0B28F
:1053A000904219D093F83D2002F0FF00002A40F00F
:1053B000CA800D2900F2CC80DFE811F09A009E002F
:1053C000A100A400A700AA00AD00B000B300B60081
:1053D000B900BC00BF00C2001A2900F2B580DFE8A6
:1053E00001F00E12161A1E22262A2E32363A3E429C
:1053F000464B50555A5F64696E73787D8200564AF9
:105400009A640846A0E0554ADA6400209CE0544AB9
:105410001A65002098E0534A5A65002094E0524AE9
:105420009A65002090E0514ADA6500208CE0504AED
:105430001A66002088E04F4A5A66002084E04E4AEF
:105440009A66002080E04D4ADA6600207CE04C4AF3
:105450001A67002078E04B4A5A67002074E04A4AF5
:105460009A67002070E0494ADA6700206CE0484AF9
:10547000C3F88020002067E0464AC3F8842000205B
:1054800062E0454AC3F8882000205DE0434AC3F843
:105490008C20002058E0424AC3F89020002053E0BE
:1054A000404AC3F8942000204EE03F4AC3F89820B9
:1054B000002049E03D4AC3F89C20002044E03C4ADB
:1054C000C3F8A02000203FE03A4AC3F8A4200020FF
:1054D0003AE0394AC3F8A820002035E0374AC3F83B
:1054E000AC20002030E0364AC3F8B02000202BE08A
:1054F000194A9A64084627E0184ADA6424E0184AF0
:105500001A6521E0174A5A651EE0174A9A651BE0A2
:10551000164ADA6518E0164A1A6615E0154A5A6600
:1055200012E0154A9A660FE0144ADA660CE0144A53
:105530001A6709E0134A5A6706E0134A9A6703E0BC
:10554000124ADA6700E00120002283F83C2070470D
:105550000120F9E7022070472126000809290008E8
:10556000554C0008574C00084D4C00084F4C0008A3
:10557000514C0008534C0008594C00085B4C000883
:105580005D4C00085F4C0008A9600008AB60000893
:10559000614C0008634C00086D4C00086F4C00081B
:1055A000674C0008694C0008654C00082D10000885
:1055B0006B4C0008714C0008396100083B61000821
:1055C0003D6100080368304A904212D0B0F1804F2C
:1055D0000FD0A2F57C4290420BD002F5806290423F
:1055E00007D002F58062904203D002F578429042E3
:1055F00003D123F070034A681343234A90422AD010
:10560000B0F1804F27D0A2F57C42904223D002F522
:10561000806290421FD002F5806290421BD002F55A
:105620007842904217D002F57052904213D002F5A2
:10563000806290420FD002F5806290420BD0A2F5BA
:105640009832904207D002F58062904203D002F572
:105650008062904203D123F44073CA68134323F05D
:1056600080034A69134303608B68C3620B688362DB
:10567000054B984203D003F58063984201D10B6932
:1056800003630123436170470000014030B4036AA3
:1056900023F010030362036A4468826922F4E6423D
:1056A0000D6842EA052223F020038D6843EA0513C2
:1056B000114DA84203D005F58065A84206D123F01C
:1056C0008003CD6843EA051323F040030A4DA84246
:1056D00003D005F58065A84207D124F440644D69E4
:1056E00044EA85048D6944EA8504446082614A681D
:1056F0008263036230BC70470000014038B590F807
:105700003C30012B66D004460D46012380F83C3026
:105710000C2A5AD8DFE802F0075959591B59595930
:105720003059595944000068FFF72CFB22689369EF
:1057300043F0080393612268936923F004039361A3
:105740002268936929690B43936100203EE0006859
:10575000FFF79CFF2268936943F40063936122681A
:10576000936923F48063936122689369296943EA0A
:1057700001239361002029E00068FFF73BFB2268CA
:10578000D36943F00803D3612268D36923F004038B
:10579000D3612268D36929690B43D361002015E0E6
:1057A0000068FFF75FFB2268D36943F40063D361AD
:1057B0002268D36923F48063D3612268D36929699D
:1057C00043EA0123D361002000E00120002384F894
:1057D0003C3038BD0220FCE770B49446046A24F0E3
:1057E000010404628469066A184DA8421CD0B0F115
:1057F000804F19D0164A904216D002F5806290422E
:1058000012D002F5806290420ED002F578429042AA
:105810000AD002F57052904206D0A2F5943290421E
:1058200002D044F0010203E024F0030242EA0C0239
:1058300022F0F0021B01DBB2134326F00A0201F052
:105840000A0111438361016270BC7047000001408E
:105850000004004038B590F83C30012B5AD0044683
:105860000D46012380F83C3052B1042A1AD0082A90
:105870002BD00C2A3BD00120002384F83C3038BDCB
:10588000CB684A6809680068FFF7A6FF2268936939
:1058900023F00C03936122689369A9680B43936119
:1058A0000020E9E7CB684A6809680068FFF715FB44
:1058B0002268936923F44063936122689369A9681D
:1058C00043EA012393610020D6E7CB684A68096860
:1058D0000068FFF731FB2268D36923F00C03D36122
:1058E0002268D369A9680B43D3610020C4E7CB6861
:1058F0004A6809680068FFF73AFB2268D36923F415
:105900004063D3612268D369A96843EA0123D36164
:105910000020B1E70220B2E710B4846824F47F4C81
:1059200042EA03220A4342EA0C0282605DF8044B19
:10593000704790F83C30012B78D010B50446012315
:1059400080F83C30022380F83D300268936823F4ED
:105950007F4323F0770393600B68602B4CD029D8EA
:10596000402B54D00CD9502B22D1CA68496800680A
:10597000FFF7A0FA50212068FFF714FB002005E094
:10598000202B0DD009D9302B0AD00120012384F817
:105990003D30002384F83C3010BD0BB1102B05D1F5
:1059A00019462068FFF7FEFA0020EFE70120EDE737
:1059B0000120EBE7B3F5805F34D0B3F5005F0CD185
:1059C000CB684A6889680068FFF7A6FF2268936879
:1059D00043F4804393600020D8E7702B24D1CB6838
:1059E0004A6889680068FFF797FF2268936843F068
:1059F000770393600020C9E7CA6849680068FFF729
:105A000087FA60212068FFF7CDFA0020BEE7CA6858
:105A100049680068FFF74EFA40212068FFF7C2FA94
:105A20000020B3E70020B1E70120AFE70220704774
:105A300001F01F014FF0010C0CFA01FC036A23EA8C
:105A40000C030362036A8A40134303627047000039
:105A500010B504460846002942D194F83E30DBB226
:105A6000013B18BF0123002B6ED1002851D1022326
:105A700084F83E30012201462068FFF7D9FF2368F1
:105A8000334A934203D002F58062934203D15A6CA9
:105A900042F400425A6423682D4A934249D0B3F13C
:105AA000804F46D0A2F57C42934242D002F58062FC
:105AB00093423ED002F5806293423AD002F578429A
:105AC000934236D002F57052934232D0A2F594320E
:105AD00093422ED01A6842F001021A60002032E090
